:1000000058130020992A00007D280000A72A00002C
:10001000A72A0000A72A0000A72A0000A72A00009C
:10002000000000000000000000000000A72A0000FF
:10003000A72A000000000000A72A0000A72A00004D
:1000400079210000952000003D220000912200004F
:1000500079210000952000003D220000912200003F
:1000600079210000952000003D220000912200002F
:1000700079210000952000003D220000912200001F
:1000800079210000952000003D220000912200000F
:100090000000000000000000000000000000000060
:1000A0000000000000000000000000000000000050
:1000B0000000000000000000000000000000000040
:1000C000FFFFFFFFFFFFFFFFFFFFFFFFFFFFFFFF40
:10040000FFFFFFFFDFCEFFFFFCFF0F00FFFF0F002E
:10041000FCFF0F00FFFF0F00FCFF0F00FFFF0F00AE
:10042000FCFF0F20FFFF0F20FCFF7F40FFFF7F40FE
:10043000FCFF0D40FFFF0D40FFFFFFFFFFFFFFFF31
:10044000FFFFFFFFFFFFFFFFFFFFFFFFFFFFFFFFBC
:10045000FFFFFFFFFFFFFFFFFFFFFFFFFFFFFFFFAC
:10046000FFFFFFFFFFFFFFFFFFFFFFFFFFFFFFFF9C
:10047000FFFFFFFFFFFFFFFFFFFFFFFFFFFFFFFF8C
:10048000FFFFFFFFFFFFFFFFFFFFFFFFFFFFFFFF7C
:10049000FFFFFFFFFFFFFFFFFFFFFFFFFFFFFFFF6C
:1004A000FFFFFFFFFFFFFFFFFFFFFFFFFFFFFFFF5C
:1004B000FFFFFFFFFFFFFFFFFFFFFFFFFFFFFFFF4C
:1004C000FFFFFFFFFFFFFFFFFFFFFFFFFFFFFFFF3C
:1004D000FFFFFFFFFFFFFFFFFFFFFFFFFFFFFFFF2C
:1004E000FFFFFFFFFFFFFFFFFFFFFFFFFFFFFFFF1C
:1004F000FFFFFFFFFFFFFFFFFFFFFFFFFFFFFFFF0C
:1005000010B540F23004C2F20004237863B940F21F
:100510000003C0F200032BB143F28C60C0F2000074
:1005200000E000BF0123237010BDC04640F200036D
:10053000C0F2000310B54BB140F2340143F28C60BD
:10054000C2F20001C0F2000000E000BF10BDC046D2
:1005500080B582B000AF40F6B443C2F200037B60C6
:100560007B6803221A617B6803225A617A6843F22E
:10057000C013C0F2000393617A6840F24C03C2F2E8
:100580000003D3617B6840F200421A627B6800225C
:100590009A627B6800225A627B680022DA627A687B
:1005A00043F2C013C0F2000313667A6840F24C4372
:1005B000C2F2000353667B6810229A667B680022B1
:1005C0001A677B680022DA667B6800225A677B68BC
:1005D000DA1D43F2CC13C0F200031000190004230B
:1005E0001A0002F0A1FDBFF35F8F7A6843F2D013C7
:1005F000C0F200031000190007231A0002F094FD56
:10060000BFF35F8F7B6820229A71BFF35F8FC04674
:10061000BD4602B080BD80B58AB000AFF860B96059
:100620007A6000233B62FB68DB68FB61FB681B6947
:10063000BB61BA69FB699A4205D9BA69FB69D31AE9
:10064000013B7B6207E0FB689A68B969FB69CB1ADA
:10065000D318013B7B62FB689A68FB69D21A7B6AFC
:10066000934200D913007B627A6A7B68934200D977
:1006700013007B62FB685A68FB69D3187B617A6A56
:10068000B9687B69180002F04FFD3A6A7B6AD3189B
:100690003B62BA687B6AD318BB607A687B6AD31AFC
:1006A0007B60FA697B6AD318FB61FB689B68FA6917
:1006B0009A4201D10023FB61BFF35F8FFB68FA69A7
:1006C000DA607B68002BB1D13B6A1800BD460AB0E6
:1006D00080BD80B588B000AFF860B9607A60FB6813
:1006E000DB68FB61FB689A68FB69D31ABB61BA6976
:1006F0007B689A4212D9FB685A68FB69D3183B6140
:100700007A68B9683B69180002F00EFDBFF35F8F8D
:10071000FA697B68D218FB68DA6020E0BB697B610C
:10072000FB685A68FB69D3183B617A69B9683B6911
:10073000180002F0F9FC7A68BB69D31A7B61FB6888
:100740005B683B61BA68BB69D1187A693B6918007C
:1007500002F0EAFCBFF35F8FFB687A69DA60C0469B
:10076000BD4608B080BD80B586B000AF78607B68BC
:100770001B693B617B68DB68FB603A69FB689A42F6
:1007800008D87B689A68FB68D21A3B69D318013B8A
:100790007B6104E03A69FB68D31A013B7B617B69AA
:1007A0001800BD4606B080BD80B588B000AFF860C7
:1007B000B9607A60BB68BB61FB685A1C13005B00C0
:1007C0009B18DB0040F6B442C2F200029B187B612A
:1007D0007B695B69022B2DD035D813B1012B16D064
:1007E00031E07B691800FFF7BEFF03003B613A6907
:1007F0007B689A4202D20023FB6127E07B68FB61A1
:100800007A68B9697B691800FFF763FF1EE07B69AE
:100810001800FFF7A8FF03003B613A697B68934229
:1008200000D91300FB61FA69B9697B691800FFF709
:1008300050FF0BE07A68B9697B691800FFF7EBFE9F
:100840000300FB6102E00023FB61C046FB69180066
:10085000BD4608B080BD80B588B000AFF860B96013
:100860007A6040F6B443C2F20003FB61FB691B7877
:100870005BB20BB9FFF76CFEEFF31083012181F33C
:100880001088BB617A68B968FB681800FFF78CFFB5
:1008900003007B61BB6983F310887B691800BD4648
:1008A00008B080BD80B584B000AF78600A00FB1C42
:1008B0001A707B689B68FB60FB685A1C7B685B68EE
:1008C0009A420FD87B681A68FB68D318FA1C127812
:1008D0001A70FB685A1C7B689A607B68DB685A1C3C
:1008E0007B68DA607B689A687B685B689A4215D19E
:1008F0007B6818697B6819687B689B681A00FFF73A
:10090000AAFF02007B689B689A4204D07B680122A0
:100910005242DA6002E07B6800229A60C046BD461F
:1009200004B080BD80B58AB000AFF860B9607A606D
:100930003B60BB683B6201237B620123FB6107E0F4
:100940003A6A7B68B2FBF3F33B62FB690133FB61FC
:100950003A6A7B689A42F3D23A68FB699A4201D9B3
:100960003B68FB617B6B012213404BBB3B6B3BB392
:100970007B6B0222134033B13B6823B91B23FB1866
:1009800030221A7003E01B23FB1820221A700FE09C
:100990003B6B013B3B631B23FB1800229A56FB6811
:1009A00011001800FFF77EFFFB68DB68002B06DBF9
:1009B0003B6B2BB1FA693B6B9A42E9D300E0C0462E
:1009C000FB68DB68002B56DB3B68012B03D93B68D7
:1009D000013B3B6009E0BA687B6AB2FBF3F37B61E1
:1009E0007A697B689A4200D204E07B6A7A68534352
:1009F0007B62E9E7BA687B6AB2FBF3F37B617B69F0
:100A00007A6A5343BA68D31ABB6043F25C23C0F2DC
:100A100000037A699B1800229A56FB68110018009F
:100A2000FFF740FFFB68DB68002B08DB7A6A7B6816
:100A3000B2FBF3F37B627B6A002BDBD100E0C046A4
:100A40007B6B01221340B3B13B6BA3B10BE03B6B5B
:100A5000013B3B63FB6820211800FFF723FFFB6885
:100A6000DB68002B06DB3B6B2BB1FA693B6B9A42D0
:100A7000EDD300E0C046C046BD460AB080BD90B58B
:100A800089B002AFF860B9607A603B60BB68DA1782
:100A90009B1853403B6101237B6107E07B683A6907
:100AA00092FBF3F33B617B6901337B617B683A69BD
:100AB0009A42F3DA3A687B699A4201D93B687B61D2
:100AC000BB6A4BB1BB68002B03DBFB6A04221340FB
:100AD00013B1BB6A013BBB62FB6A022213400BB13C
:100AE0003B68D3B1FB6A01221340B3B9BB6AA3B11F
:100AF0000BE0BB6A013BBB62FB6820211800FFF7DB
:100B0000D1FEFB68DB68002B06DBBB6A2BB17A6980
:100B1000BB6A9A42EDD300E0C046FB68DB68002B5D
:100B200048DBBB68002B08DABB685B42BB60FB6834
:100B30002D211800FFF7B6FE08E0FB6A04221340DF
:100B400023B1FB682B211800FFF7ACFEFB68DB68C4
:100B5000002B2FDBFB6A02221340E3B1FB6A012268
:100B60001340C3B93B68B3B9BB6AA3B10BE0BB6A1E
:100B7000013BBB62FB6830211800FFF793FEFB6866
:100B8000DB68002B06DBBB6A2BB17A69BB6A9A4231
:100B9000EDD300E0C046FB68DB68002B0ADBB968D8
:100BA0003C687A68F868FB6A0193BB6A009323008B
:100BB000FFF7B8FEC046BD4607B090BD90B5A3B0E4
:100BC00002AFF860B9607A6050217B181022BA1821
:100BD0001A607B1840225A607B1800229A607B18AA
:100BE000FA681A617B180022DA607F217B18BA68E4
:100BF00012781A70BB680133BB607B181B785BB23C
:100C0000002B00D166E17B181B785BB2252B00D04E
:100C10004FE100233B670123BB677F217B18BA6844
:100C200012781A707B181B785BB2302B10D027DC3F
:100C30002D2B05D024DC232B1AD02B2B10D01FE01A
:100C40003B6F012213433B67BB680133BB601AE073
:100C50003B6F022213433B67BB680133BB6012E06A
:100C60003B6F042213433B67BB680133BB600AE060
:100C70003B6F082213433B67BB680133BB6002E054
:100C80000023BB67C046BB6F002BC6D10023FB66A9
:100C90007F217B18BA6812781A707B181B785BB2B8
:100CA0002F2B14DD7B181B785BB2392B0FDCBB6854
:100CB0000133BB60FA6E13009B009B185B001A00A7
:100CC0007B181B785BB2D318303BFB66E0E7002350
:100CD0007B677F217B18BA6812781A707B181B78A3
:100CE0005BB22E2B21D1BB680133BB607F217B1807
:100CF000BA6812781A707B181B785BB22F2B14DD40
:100D00007B181B785BB2392B0FDCBB680133BB60EF
:100D10007A6F13009B009B185B001A007B181B78EE
:100D20005BB2D318303B7B67E0E77F23FB18BA68E0
:100D300012781A707F22BB181B785BB26C2B04D020
:100D4000BB181B785BB2682B08D1BB680133BB6052
:100D50007F23FB18BA6812781A70EBE77F23FB1821
:100D60001B785BB2252B00D197E000DA9CE0782B52
:100D700000DD99E0582B00DA96E0583B202B00D993
:100D800092E09A00634BD3181B689F467B681B68F0
:100D9000191D7A6811601B68BB6767217B18BA6FE1
:100DA0001A707B1800229A565023FB181100180065
:100DB000FFF778FD79E07B681B68191D7A68116080
:100DC0001B68BB677A6FB96F5023F8183B6F0193AC
:100DD000FB6E009313000A22FFF751FE65E07B686B
:100DE0001B68191D7A6811601B68BB67B96F7A6F41
:100DF0005023F8183B6F0193FB6E009313000A22F7
:100E0000FFF790FD51E07B681B68191D7A6811603F
:100E10001B68BB67B96F7A6F5023F8183B6F01935B
:100E2000FB6E009313001022FFF77CFD3DE07B6812
:100E30001B68191D7A6811601B68BB667F217B18CF
:100E4000BA6E12781A70BB6E0133BB667B181B78C2
:100E50005BB26BB17B1800229A5650243B191100EB
:100E60001800FFF71FFD3B19DB68002BE6DA1CE0DA
:100E7000C0461AE07B681B68191D7A6811601B6800
:100E8000BB67B96F5023F818002301930823009320
:100E900008231022FFF746FD07E05023FB18252109
:100EA0001800FFF7FFFC00E0C046BB680133BB60E1
:100EB00009E07F23FB1800229A565023FB181100EB
:100EC0001800FFF7EFFC5023FB18DB68002B00DB5A
:100ED0008BE600E0C0465022BB18DB68002B12DD19
:100EE000BB189B683BB1BB189A681023F918FB68C4
:100EF0001800FFF7B0FC50217B18DA687B189B685C
:100F0000D2187B18DA605023FB18DB681800BD4646
:100F100021B090BDD83100000EB480B585B000AFCF
:100F200078602023FB18BB600823FA18F9697B68F6
:100F30001800FFF743FE0300FB60FB681800BD4686
:100F400005B080BC08BC03B0184780B584B000AFC2
:100F500043F23062C0F2000240F65C53C2F200037A
:100F60001100180001F068FA43F29842C0F2000242
:100F700040F6B453C2F200031100180000F0E3F889
:100F800043F23842C0F2000240F62463C2F200038A
:100F90001100180000F0D7F843F26842C0F20002D6
:100FA00040F68453C2F200031100180000F0CBF8A1
:100FB00043F20842C0F2000240F65463C2F200035A
:100FC0001100180000F0BFF80F217B1800221A70E2
:100FD00040F2F413BB603800BA687B18197803003C
:100FE00042F2805000F0C9FD03007B607B6873B162
:100FF00043F26C23C0F2000343F2D822C0F2000295
:1010000043F28020C0F20000A72101F00FFC3A005B
:1010100040F65463C2F200031100180000F078FD9E
:1010200003007B607B6873B143F26C23C0F2000362
:1010300043F2D822C0F2000243F28020C0F2000046
:10104000AA2101F0F3FBC046BD4604B080BD80B5C7
:1010500086B000AF0C23FA1843F2C423C0F2000399
:1010600003CB03C21B8813803A1D43F2D023C0F286
:10107000000319681160998891809B799371FFF73B
:1010800064FF40F65C53C2F20003012240F20341C8
:10109000180001F0E7F943F29423C0F200031800AE
:1010A00000F076F843F2A423C0F20003180000F029
:1010B0006FF843F2BC23C0F20003180000F0D6F82A
:1010C00000F0D2F90300012B09D1002000F0D7F97C
:1010D00040F25C43C2F20003180000F059F800F03F
:1010E000DFF90300012BEBD1002000F0E4F940F21E
:1010F0005C43C2F20003180000F04AF8E0E780B554
:1011000082B000AF0200FB1D1A70FB1D1B7833B9C3
:101110004CF20003C4F27E03902201219954FB1D7E
:101120001B78022B0BD143F23062C0F2000240F672
:101130005C53C2F200031100180001F07DF9C046B3
:10114000BD4602B080BD80B584B000AF7860396024
:101150000023FB603A687B681100180000F0A2FBD6
:101160000300FB60FB6873B143F2E823C0F20003A5
:1011700043F2CC32C0F2000243F21031C0F200015F
:101180000020FFF7C9FEFB681800BD4604B080BD13
:1011900090B587B000AF786000237B610F243B19C6
:1011A00000221A704FF60043C0F2FF333B617B68A8
:1011B000BB60BB68180001F0C8FF02003B191A7041
:1011C00040F66143C2F2000300221A703B191A78FC
:1011D000796840F6B453C2F20003180000F04AFCEC
:1011E00003007B617B6953B343F22C33C0F20003ED
:1011F00043F2DC32C0F2000243F21031C0F20001CF
:101200000020FFF789FE7B692CE040F66143C2F2C3
:1012100000031B78DBB2782B11D143F25433C0F2B8
:10122000000343F2DC32C0F2000243F21031C0F29C
:1012300000010020FFF770FE40F22C1312E040F690
:101240006143C2F200031B78DBB2022B05D03B697D
:10125000013B3B613B69002BD7D13B690BB91423A0
:101260007B617B691800BD4607B090BD90B587B023
:1012700000AF786000237B610F243B1900221A70B5
:101280004FF60043C0F2FF333B617B68BB60BB6835
:10129000180001F05AFF02003B191A7040F6624331
:1012A000C2F2000300221A703B191A78796840F6DE
:1012B0008453C2F20003180000F0DCFB03007B61E2
:1012C0007B6953B343F22C33C0F2000343F2E8329C
:1012D000C0F2000243F21031C0F200010020FFF71B
:1012E0001BFE7B692CE040F66243C2F200031B78D0
:1012F000DBB2782B11D143F25433C0F2000343F236
:10130000E832C0F2000243F21031C0F200010020C6
:10131000FFF702FE40F22C1312E040F66243C2F2E5
:1013200000031B78DBB2022B05D03B69013B3B611C
:101330003B69002BD7D13B690BB914237B617B69D7
:101340001800BD4607B090BD80B582B000AF786090
:101350007B681A7940F66143C2F200031A7040F6C6
:101360005C43C2F200031B6840F20042934205D185
:1013700040F65C43C2F2000300221A607B681B79CE
:10138000042B24D17B689B68132B0CD140F65C4363
:10139000C2F2000300221A6040F66043C2F200036A
:1013A00001221A7014E07B68986840F65C43C2F230
:1013B00000031A68511C40F65C43C2F20003196036
:1013C000C1B240F65C03C2F20003995400E0C0468B
:1013D000C046BD4602B080BD80B582B000AF786027
:1013E0007B681A7940F66243C2F200031A7040F635
:1013F0005C43C2F200031B6840F20042934205D1F5
:1014000040F65C43C2F2000300221A607B681B793D
:10141000042B24D17B689B68132B0CD140F65C43D2
:10142000C2F2000300221A6040F66043C2F20003D9
:1014300001221A7014E07B68986840F65C43C2F29F
:1014400000031A68511C40F65C43C2F200031960A5
:10145000C1B240F65C03C2F20003995400E0C046FA
:10146000C046BD4602B080BD80B500AF40F66043C7
:10147000C2F200031B78DBB21800BD4680BD80B508
:1014800082B000AF0200FB1D1A7040F66043C2F24A
:101490000003FA1D12781A70C046BD4602B080BD26
:1014A00080B500AF40F66343C2F200031B78DBB2A5
:1014B0001800BD4680BD80B582B000AF0200FB1DA4
:1014C0001A7040F66343C2F20003FA1D12781A70D4
:1014D000C046BD4602B080BD80B582B000AF786026
:1014E0007B681A7940F66443C2F200031A7040F632
:1014F0005C43C2F200031B6840F20042934205D1F4
:1015000040F65C43C2F2000300221A607B681B793C
:10151000042B24D17B689B680A2B0CD140F65C43DA
:10152000C2F2000300221A6040F66343C2F20003D5
:1015300001221A7014E07B68986840F65C43C2F29E
:1015400000031A68511C40F65C43C2F200031960A4
:10155000C1B240F65C03C2F20003995400E0C046F9
:10156000C046BD4602B080BD80B582B000AF786095
:101570007B681A7940F66443C2F200031A7040F6A1
:101580005C43C2F200031B6840F20042934205D163
:1015900040F65C43C2F2000300221A607B681B79AC
:1015A000012B05D140F66043C2F2000301221A70FC
:1015B0007B681B79042B24D17B689B68132B0CD18F
:1015C00040F65C43C2F2000300221A6040F660431A
:1015D000C2F2000301221A7014E07B68986840F69A
:1015E0005C43C2F200031A68511C40F65C43C2F22D
:1015F00000031960C1B240F65C03C2F200039954C3
:1016000000E0C046C046BD4602B080BD80B500AF18
:10161000FFF71DFD00231800BD4680BD80B582B0D8
:1016200000AFEFF303837B607B683B603B001B886C
:10163000DB05DB0D9BB2DBB2103BDBB25BB218000B
:10164000BD4602B080BD80B586B000AF0200FB1D74
:101650001A704EF20003C4F201031B6A7B617B69BE
:101660001B0E072213403B61FB1D1B787A69DA4091
:10167000130007221340FB6040F6B043C2F20003A0
:101680001A683B699A40FB68DA4013001800BD46AF
:1016900006B080BD80B582B000AF02003960FB1D8E
:1016A0001A70FB1D00229A5640F6D863C2F200035E
:1016B00092003968D150C046BD4602B080BDFFFFE0
:1016C00080B582B000AF0200FB1D1A7046F2000325
:1016D000C4F20003FA1D127852B2C0329100CA5807
:1016E00003480240CA50C046BD4602B080BDC04655
:1016F000FFFFFEFF80B584B000AF0200FB1D1A7033
:10170000FB1D1B785BB21800FFF7DAFFFB1D1B788F
:101710005BB2FB60FB681F22134019004EF20013FE
:10172000CEF20003FA1D127852B25209012088400D
:10173000010060329200D150C046BD4604B080BD69
:1017400090B585B000AFB9607A600F243B19021CD8
:101750001A704EF20013CEF200033A19127852B208
:101760009208C0329200D3583A191278110003221D
:101770000A40D200FF2191400A00D2431A401000D3
:10178000BB689B01FF221A403B191B7819000323F9
:101790000B40DB009A4011004EF20013CEF2000322
:1017A0003A19127852B292080143C0329200D150D5
:1017B0007A683B191B785BB211001800FFF76AFFCB
:1017C000C046BD4605B090BD80B584B000AF0200F4
:1017D000FB1D1A70FB1D1B785BB2FB60FB681F22B0
:1017E000134019004EF20013CEF20003FA1D1278D6
:1017F00052B252090120884001009200D150C046E7
:10180000BD4604B080BD80B582B000AF0200FB1DB4
:101810001A70FB1D1B785BB21800FFF76BFFFB1DF6
:101820001B785BB21800FFF7CFFFC046BD4602B081
:1018300080BD80B584B000AF0200FB1D1A70FB1D97
:101840001B785BB2FB60FB681F22134019004EF24D
:101850000013CEF20003FA1D127852B25209012091
:101860008840010020329200D150BFF34F8FC04614
:10187000BFF36F8FC046C046BD4604B080BD80B583
:1018800082B000AF0200FB1D1A70FB1D00229A56A9
:1018900040F6D863C2F200039200D3581800BD4648
:1018A00002B080BD80B58AB000AF786039607B68D7
:1018B0007B623B681B7843F6000CC0F2002C63444B
:1018C0005B011A007B6A1A627B6A00221A707B6ACB
:1018D0003A68DA613B685A697B6A5A623B689A697E
:1018E0007B6ADA627B6A00229A627B6A9A780321B9
:1018F0008A43111C01220A439A703B685B78022BD1
:1019000007D17B6A9A7803218A43111C02220A4379
:101910009A703A687B6A1100180000F022FB0023DD
:101920003B62EFF31083FB60FB683B6201233B618A
:101930003B6983F31088C04647F20003C4F20403F6
:101940001A683B681B78190080231B06CB40D943DB
:1019500047F20003C4F204030A401A6047F200038E
:10196000C4F204031B683B6A7B617B6983F31088C4
:10197000C0467B6A1B6A00229A707B6A1B6A00223F
:101980001A717B6A1B6A00225A727B6A1B6A0022E8
:101990009A727B6A1B6A0022DA727B6A1B6A0022D7
:1019A0005A833B681B781A0040F20F23D340012270
:1019B00013401BB17B6A1B6A4022DA747B6A1B6A84
:1019C00006221A773A687B6A1100180000F022FAA2
:1019D0007B6A0022DA607B6A00221A617B6A00223D
:1019E0005A617B6A00229A613B68DB69FB61FB6993
:1019F0001B781A0003231340BB61BB6910221343F9
:101A0000BB617B6ADB695B795BB21800FFF7FBFEA9
:101A10007B6ADB69DB7A5BB21800FFF7F4FEBB6917
:101A200040221343BB617B6ADB69DB795BB2180040
:101A3000FFF7E9FE7B6ADB695B7A5BB21800FFF7B0
:101A4000E2FEBB6920221343BB617B6A1B6ABA6951
:101A5000D2B29A70FB695A897B6A1A817A6A44F613
:101A60005513C5F24333536000231800BD460AB036
:101A700080BDFFFF80B586B000AFF860B9607A60C6
:101A8000FB687B617B691B6A9B78DAB27B691B6AA6
:101A90007B210A40D2B29A707B699B789B079B0F8F
:101AA000DBB21A007B689A1A7B691A617B699B78A2
:101AB0009B079B0FDBB21A00BB689A187B69DA6040
:101AC0007B691B6A9B78DAB27B691B6A8021494279
:101AD0000A43D2B29A707B699B7803221340DBB22F
:101AE000022B08D1BB681A887B691B6A07490A4325
:101AF00092B2DA8104E07B691B6ABA681278DA7004
:101B000000231800BD4606B080BDC04600FEFFFFA2
:101B100080B584B000AF786039607B68FB60FB689B
:101B20001B6A9B78DAB2FB681B6A0B210A40D2B2AF
:101B30009A70FB680022DA60FB681B6A3A68110041
:101B4000180000F03BFA0023BB60BB68502213432F
:101B5000BB60BB6820221343BB60FB681B6A9B7899
:101B6000D9B2BB68DAB2FB681B6A0A43D2B29A7078
:101B700000231800BD4604B080BDB0B592B000AFE0
:101B8000F8617A613B610B2340F2100CBC44634462
:101B90000A1C1A703B69FF229A703B691A7804216B
:101BA0008A431A703B698022DA7048F2A063C0F25F
:101BB00001037B6400233B640023BB620820FFF722
:101BC00042FD03007B620023FB630FE10023BB6344
:101BD00005E1FB6BDAB243F25863C0F20003B96B64
:101BE0005B181B789B07DB0FD9B243F25863C0F236
:101BF0000003B86B1B181B785B07DB0FDBB20B43D2
:101C0000DBB29A4200D0E2E043F26863C0F2000324
:101C1000BA6B5200D35A1A00FB695343BB627A6A0B
:101C2000BB6AB2FBF3F37B637B6B40F2001293421F
:101C300000D9D1E0C6E07B6B013B7B637B6B01335A
:101C4000BA6A53433B627B6A1C00002548F2A063DA
:101C5000C0F20103BB60DB17FB60BA68FB682000C1
:101C6000290001F07DF802000B00100019003B6A0A
:101C70003B60DB177B603A687B6801F04DF802003F
:101C80000B0048F2A063C0F20103D31A3B630023A8
:101C9000FB620B2340F2100CBC4463441B78DBB1A5
:101CA0003A6A7B6A1B0AB2FBF3F3FB62FB6A7F2B87
:101CB00000D88EE048F2A063C0F201033A6B9B1893
:101CC000FA6A534340F2001293FBF2F248F2A06327
:101CD000C0F20103D31A3B633B6B002B02DA3B6B70
:101CE0005B423B633A6B7B6C9A425BDA43F258632C
:101CF000C0F20003BA6B9B181B78DB07DB0FDAB26C
:101D00003B6901210A4090011A7840218A43111C45
:101D1000021C0A431A7043F25863C0F20003BA6B04
:101D20009B181B789B07DB0FDAB23B6901210A4045
:101D300010011A7810218A43111C021C0A431A70E0
:101D400043F25863C0F20003BA6B9B181B785B0721
:101D5000DB0FDAB23B6901210A40D0001A78082172
:101D60008A43111C021C0A431A7043F25863C0F2E2
:101D70000003BA6B9B181B78DB069B0FDAB23B693A
:101D800003210A4010005A7803218A43111C021CC7
:101D90000A435A707B6BDAB23B699A703B6B7B6487
:101DA000FB6A3B640B2340F2100CBC4463441B7879
:101DB0008BB13B691A7804210A431A703B6CDAB282
:101DC0003B69DA707B6B002B00D034E704E0C0463F
:101DD00002E0C04600E0C046BB6B0133BB63BB6B97
:101DE0000C2B00D8F5E6FB6B0133FB63FB6B012B7F
:101DF00004D87B697A6C9A4200DDE7E67B697A6CED
:101E00009A4201DD032300E000231800BD4612B012
:101E1000B0BDFFFF80B586B000AF786039603B6829
:101E20001B781BB97B681B6A3A4A9A823B689B788D
:101E30001A013B68DB78DB0013437B61F2233B61D3
:101E40003B685B78012B04D17B69402213437B61A3
:101E500007E03B685B78022B03D13B691022934378
:101E60003B617B681B6A7A69D2B21A707B681B6A15
:101E70003A69D2B29A713B68DB69BB60BB681B7B75
:101E8000DB18DAB27B681B6A02210A40D2B25A73AD
:101E90000023FB60BB685B78DB01FF221340FA681C
:101EA0001343FB60BB689B785B0120221340FA68F8
:101EB0001343FB607B681B6A00221A72BB681B78A5
:101EC000022B03D0BB681B78032B11D17B681B6AE4
:101ED000FF225A70BB681B78022B03D1FB681022CB
:101EE0001343FB607B681B6AFA68D2B2DA710DE0BB
:101EF0007B681B6AFA68D2B2DA717B681A6ABB68BF
:101F00005B681900100000F059F8C046C046BD4695
:101F100006B080BD00F8FFFF80B582B000AF7860EA
:101F200008001100FB1C021C1A70BB1C0A1C1A7052
:101F3000BB1C1B785BB21800FFF77BFCBB1C1B783B
:101F40005BB21800FFF7BCFBFB1C19787A68BB1C5E
:101F50001B785BB21800FFF7F3FBC046BD4602B02A
:101F600080BD80B582B000AF786039603B68997AF7
:101F70003B680B229A567B681800FFF7CDFF3B6841
:101F800019793B6805229A567B681800FFF7C4FF51
:101F90003B6899793B6807229A567B681800FFF7DF
:101FA000BBFF3B68197A3B6809229A567B68180088
:101FB000FFF7B2FFC046BD4602B080BD80B582B01B
:101FC00000AF786039603B689A787B685A703B68EC
:101FD0005B789B079B0FD9B27A681378032008407F
:101FE00003218B43191C031C0B4313703B68DA78E5
:101FF0007B689A747B68DB79DBB25C229343DAB24C
:102000003B681B785C210B40DBB21343DAB27B6880
:10201000DA71C046BD4602B080BD90B58BB000AF4E
:10202000F860B960FB1D1A70FB689B6A7B627B6A73
:102030001BB91423FB187B6206E01423FB187A6A91
:1020400013CA13C312681A60FB68DB691B781A0095
:102050007B6A1A607B6ABA689A607B6AFA1D12789A
:102060001A71FB68DA6A7B6ADA60FB685B6A7A6A13
:1020700010009847FB689B6A3BB1FB689B6A14227F
:10208000BA1813CA13C312681A60C046BD460BB013
:1020900090BDFFFFB0B584B000AF0F257C19FFF7EE
:1020A000BDFA030023707B191B785BB21800FFF7A1
:1020B00007FB7B191B785BB21800FFF7E0FB0300FE
:1020C000BB60BB68DB691B696BBBBB681B6953B337
:1020D000BB689B7803221340DBB2022B09D1BB689B
:1020E000DB681A88BB681B6A22490A4392B2DA810C
:1020F00005E0BB68DA68BB681B6A1278DA70BB68F7
:102100001B69BA6892789207920FD2B29A1ABB688A
:102110001A61BB68DB68BA6892789207920FD2B2F4
:102120009A18BB68DA60BB681B69F3B9BB681A6AA6
:10213000FB1D92781A70FB1DFA1D127804210A43C8
:102140001A70FB1DFA1D12787F210A401A70BB68B5
:102150001B6AFA1D12789A70BB680022DA60BB68AD
:10216000802200211800FFF758FFC046BD4604B08A
:10217000B0BDC04600FEFFFFB0B584B000AF0F2574
:102180007C19FFF74BFA030023707B191B785BB2B5
:102190001800FFF795FA7B191B785BB21800FFF760
:1021A0006EFB0300BB60BB689B7803221340DBB26D
:1021B000022B07D1BB681B6A1B8A9BB2DB05DB0DB8
:1021C0007B6004E0BB681B6A5B79DBB27B60BB6849
:1021D0009B6933B97968BB6804221800FFF71DFFBB
:1021E00028E0BB685869BB689B789B079B0FDBB2F4
:1021F0001A003B1D190000F097FFBB685B69BA68C5
:1022000092789207920FD2B29A18BB685A61BB6853
:102210009B69BA6892789207920FD2B29A1ABB68F9
:102220009A61BB689B692BB9BB6801220021180029
:10223000FFF7F3FEC046BD4604B0B0BD90B583B015
:1022400000AFFC1DFFF7EAF903002370FB1D1B78AC
:102250005BB21800FFF713FB03003B603B681B6A8F
:102260009B78DAB23B681B6A7B210A40D2B29A7033
:102270003B68022200211800FFF7CFFEFB1D1B78F0
:102280005BB21800FFF71CFAC046BD4603B090BD14
:10229000B0B584B000AF0A257C19FFF7BFF9030081
:1022A00023707B191B785BB21800FFF7E8FA030074
:1022B0007B600023FB607B689B7803221340DBB2CA
:1022C000022B07D17B681B6A1B8A9BB2DB05DB0DE7
:1022D000FB6004E07B681B6A5B79DBB2FB607B68B8
:1022E0001B6A1B79DAB20B203B1838210A401A709E
:1022F00001007B181B781022134063B17B681B6AB6
:102300001B7FDB07DB0FDBB22BB97B187A18127847
:1023100040210A431A707B681B6A1B79DAB27B681A
:102320001B6A38218A43D2B21A710B23FB181A7820
:10233000F9687B681800FFF770FE0A23FB181B780A
:102340005BB21800FFF7BCF9C046BD4604B0B0BD93
:1023500080B584B000AF0023FB60EFF310837B6097
:102360007B68FB600123BB60BB6883F31088C046B9
:1023700040F6D463C2F200031B685BB940F6005319
:10238000C4F204030022DA7040F60053C4F20403DE
:102390004022DA7040F6D463C2F200031B685A1C74
:1023A00040F6D463C2F200031A60FB683B603B68EE
:1023B00083F31088C046C046BD4604B080BD80B5DA
:1023C00084B000AF0023FB60EFF310837B607B6879
:1023D000FB600123BB60BB6883F31088C04640F6F6
:1023E000D463C2F200031B6853B140F6D463C2F257
:1023F00000031B685A1E40F6D463C2F200031A6041
:1024000040F6D463C2F200031B685BB940F6005388
:10241000C4F204030022DA7040F60053C4F204034D
:102420008022DA70FB683B603B6883F31088C0460B
:10243000C046BD4604B080BD80B584B000AF7860B2
:1024400039607B68FB60FA6845F25423C5F24F039C
:1024500013603B68180000F05AF800231800BD46CE
:1024600004B080BD90B587B000AF7860080011005F
:10247000BB1C021C1A807B1C0A1C1A701623FB183A
:1024800000221A8014203B1800221A801223FB1805
:10249000BA1C1288FF218A431A8010243B19BA1CE7
:1024A0001288FF210A401A803B191B8801229A409A
:1024B0000E217B181A807B1C1B7823B93B187A18D5
:1024C00012881A8005E01623FB180E22BA1812880B
:1024D0001A801223FB181B881B0A9BB21A00FF23C9
:1024E00013405B0140F2000CC4F2040C6344BB6077
:1024F0001423FB181B881A041623FB181B881A4385
:10250000BB689A6000231800BD4607B090BD90B527
:1025100085B000AF78607B68BB60FFF719FF0E23C2
:10252000FB1800221A8017E0BB685A680E217B183E
:102530001B88DB00D3189888BB685A680C007B188E
:102540001B88DB00D3181B68190000F013F83B1937
:102550001A883B1901321A80BB681B880E22BA18F0
:1025600012889A42E0D3FFF72AFFC046BD4605B065
:1025700090BDFFFF90B583B000AF02003960BB1D76
:102580001A803A6880235B0213403BB340F6000395
:10259000C4F20403BA1D1288120A92B21000BA1DC6
:1025A0001288FF210A4001018A189100CA58164872
:1025B0000240CA5040F60003C4F20403BA1D128858
:1025C000120A92B21400BA1D1288FF210A4039681B
:1025D0000D480140200182189200D15040F60003BE
:1025E000C4F20403BA1D1288120A92B21000BA1D76
:1025F0001288FF210A4001018A1892003968D150DF
:10260000C046BD4603B090BDFFFFFEFF80B582B05F
:1026100000AF0200FB1D1A704EF20003C4F201036A
:10262000A0229B5CDBB2FA1D12789A4234D04EF2A3
:102630000003C4F2010336229B5CDBB25BB9C046E7
:102640004EF20003C4F201033C229B5CDB07DB0F6C
:10265000DBB2012BF4D1C0464EF20003C4F20103F9
:10266000A0229B5CDB06DB0FDBB2002BF4D14EF229
:102670000003C4F20103FA1DA02112785A54C04687
:102680004EF20003C4F20103A0229B5CDB06DB0FC9
:10269000DBB2002BF4D100E0C046BD4602B080BDE5
:1026A00080B582B000AF4EF20003C4F201032622CF
:1026B0009B5CDBB27B6040F21803C2F200037A68D5
:1026C0009200D2584EF20003C4F201031B6A5B0170
:1026D0005B0FDBB2DA4040F6B043C2F200031A608F
:1026E000C046BD4602B080BD80B500AF4EF20003CB
:1026F000C4F201033122012199544FF6C473C4F28C
:102700007E0301221A704EF20003C4F20103262256
:10271000002199544EF20003C4F2010340F200126A
:102720001A62FFF7BDFFC046BD4680BD80B500AF51
:1027300040F21803C2F2000346F60042C0F2DC2267
:102740001A6040F21803C2F2000341F20022C0F204
:102750007A025A6040F21803C2F2000348F2000203
:102760009A6040F21803C2F200030022DA6040F2DD
:102770001803C2F2000300221A61FFF791FFC0465E
:10278000BD4680BD80B500AF4EF20003C4F2010328
:1027900040F2FE321F4999524CF20003C4F27E030C
:1027A00043F6C87200219954FFF7C0FF4EF20003B0
:1027B000C4F2010340F28042012199540020FFF746
:1027C00025FF4EF20003C4F2010336220021995482
:1027D000C0464EF20003C4F201033C229B5CDB07BF
:1027E000DB0FDBB2012BF4D1FFF77EFF4EF20003CB
:1027F000C4F2010340F2FE32074999524CF2000341
:10280000C4F27E0343F6C87201219954C046BD4606
:1028100080BDC04603A5FFFF00A5FFFF80B582B0C5
:1028200000AF7860C046BD4602B080BD80B584B0C0
:1028300000AFF860B9607A603B6000BEFEE780B52B
:1028400082B000AF0200FB1D1A70FB1D1A7840F623
:102850006843C2F200039200D3585BB1FB1D1A78A3
:1028600040F66843C2F200039200D358FA1D127872
:1028700010009847C046BD4602B080BD80B582B00A
:1028800000AF46F20003C4F200033A1D40F24011CB
:102890005B5A1380FB1D00221A7012E03B1D1A8840
:1028A000FB1D1B78DA4013000122134023B1FB1DEE
:1028B0001B781800FFF7C3FFFB1D1A78FB1D0132C0
:1028C0001A70FB1D1B780F2BE8D946F20003C4F2E7
:1028D00000033A1D40F2301112885A52C046BD46DC
:1028E00002B080BD80B582B000AF00237B6012E0F3
:1028F00043F23863C0F200037A689B181A7846F2F4
:102900000003C4F2000311007A68C0329200D15073
:102910007B6801337B607B681F2BE9D9C046C046CA
:10292000BD4602B080BDFFFF80B586B000AF02009B
:10293000FB1D1A7000237B61EFF31083FB60FB68C3
:102940007B6101233B613B6983F31088C046FB1D1B
:102950001A7840F6A843C2F200035200D35A9BB241
:1029600083B1FB1D1A7840F6A843C2F20003510060
:10297000CB5A9BB2013B99B240F6A843C2F2000386
:102980005200D152FB1D1A7840F6A843C2F2000350
:102990005200D35A9BB2EBB94EF20003C4F20103CA
:1029A00040F2FE329B5A9BB20F4A13439AB2FB1D70
:1029B000197843F28463C0F200034900CB5ADB4329
:1029C00099B24EF20003C4F201030A4091B240F200
:1029D000FE3299527B69BB60BB6883F31088C046A6
:1029E000C046BD4606B080BD00A5FFFF80B586B0DD
:1029F00000AF0200FB1D1A7000237B61EFF3108310
:102A0000FB60FB687B6101233B613B6983F31088BA
:102A1000C046FB1D1A7840F6A843C2F200035200DC
:102A2000D35A9BB2DBB94EF20003C4F2010340F269
:102A3000FE329B5A9AB2FB1D197843F28463C0F2AE
:102A400000034900CB5A13439AB24EF20003C4F27A
:102A5000010310490A4391B240F2FE329952FB1D24
:102A60001A7840F6A843C2F200035100CB5A9BB239
:102A7000013399B240F6A843C2F200035200D1528A
:102A80007B69BB60BB6883F31088C046C046BD4607
:102A900006B080BD00A5FFFF80B500AF00F00AF8CA
:102AA000FEF7B4FDFEE780B500AF00BEC046BD46F0
:102AB00080BDFFFF80B582B000AF4EF60053CEF26E
:102AC000000340F20002C0F200029A600020FEF70C
:102AD00016FBFFF757FE00F083F80120FEF70FFB0F
:102AE00040F60053C4F2000300229A8040F60053DF
:102AF000C4F20003394A1A8040F60053C4F20003BE
:102B000040F65872C2F200029A6040F60053C4F2D6
:102B1000000341F25832C2F20002DA6046F20003CA
:102B2000C4F2000340F2201241F20001995240F633
:102B30000053C4F2000301229A8040F65872C2F298
:102B4000000240F23003C2F20003D21A40F2300316
:102B5000C2F200030021180000F0EFFA40F2180260
:102B6000C2F2000240F20003C2F20003D21A43F2A2
:102B70009861C0F2000140F20003C2F200031800A5
:102B800000F0D2FA40F21402C2F2000240F2100346
:102B9000C2F20003D31A9B103B6000237B600AE063
:102BA00040F21003C2F200037A689200D3589847AB
:102BB0007B6801337B607A683B689A42F0DBFFF701
:102BC0006FFD0220FEF79BFAFFF78CFE0020FFF757
:102BD00025FEC046BD4602B080BDC04600A5FFFF31
:102BE00080B58AB000AFFB1D00221A70FB1D1B7858
:102BF0000120FFF7FBFE00237B62EFF31083BB6035
:102C0000BB687B620123FB60FB6883F31088C046CE
:102C100047F20003C4F204035A6847F20003C4F207
:102C200004032D490A405A6047F20003C4F204032A
:102C30005B687B6A3B613B6983F31088C04640F662
:102C40000003C4F204031B68DB07DB0FDBB21A00CE
:102C5000FB1D1A7040F60003C4F204031B68DB0777
:102C6000DB0FDBB21A00FB1D1A7040F60003C4F242
:102C700004031B68DB07DB0FDBB21A00FB1D1A70B5
:102C800000233B62EFF310837B617B693B6201238E
:102C9000BB61BB6983F31088C04647F20003C4F2EE
:102CA00004035A6847F20003C4F204038021490573
:102CB0000A435A6047F20003C4F204035B683B6AAC
:102CC000FB61FB6983F31088C0460120FFF72CFEEF
:102CD000C046BD460AB080BDFFFFFFEF1C210123A7
:102CE0001B04984201D3000C10391B0A984201D3EF
:102CF000000A08391B09984201D30009043902A2CD
:102D0000105C40187047C046040302020101010133
:102D10000000000000000000002B15D1002A13D194
:102D2000002906DB01DC002806D00020C043410852
:102D300002E080210906002007B4024801A14018E2
:102D4000029003BDB500000003B4684601B50298C7
:102D500000F034F8019B9E4602B00CBC7047C046A0
:102D6000F0B5CE4647464FF6FF7580B50700280000
:102D700015400E002900140C384099463B0C414385
:102D80005D436043634340190C0C24189C46A542E4
:102D900003D980235B029846C4444B464FF6FF702C
:102DA0007B437243250C65442404084059192018BC
:102DB0008918C0BCB946B046F0BDC046F8B5CE468D
:102DC000474680B59146984604000D0000F016F87D
:102DD00007000E0002000B0048464146FFF7C0FF07
:102DE000241A8D41089B380031001C605D60C0BC16
:102DF000B946B046F8BDC0467047C046F0B54E462D
:102E00004546DE465746E0B583B00090019110007C
:102E10001900009B019C40F20008261E0ADA2500DA
:102E20001C0000236242AB411E000092019301236B
:102E30005B4298460F1E08DA4346DB430C00984677
:102E4000030000215842A1410F000500B146009C3B
:102E5000002F44D1B04266D9FFF740FF50B1202384
:102E600021001B1A3200D94082400B0013438540D9
:102E7000994684402F0CB9FBF7F33A004FF6FF76E2
:102E8000180049465A432E4070438A1A1204210CF6
:102E90000A43904209D95219591E954200D92BE193
:102EA000904200D828E1023B5219121AB2FBF7F007
:102EB0004FF6FF7147434643D21B12040C40224396
:102EC000964207D9AA18411E954202D80238964266
:102ED00000D808001B0440F2000C034304E0B74292
:102EE00012D940F2000C002318004346614623B17A
:102EF0000300644600215842A14103B0F0BCBB4628
:102F0000B246A946A046F0BD3800FFF7E7FE84466A
:102F10000300002800D08CE00133B742E4D3030063
:102F2000AC424341E0E700B9FFDEFFF7D7FEA0BBAC
:102F30004FF6FF7140F2010C721B2F0C2940B2FBBF
:102F4000F7F308005843814638005843101A00042C
:102F5000220C1043814507D940195A1E854202D8D8
:102F6000814500D9DDE013004A46861AB6FBF7F02A
:102F70004FF6FF7247434143F61B36041440264385
:102F8000B14207D9AE19421EB54202D80238B14249
:102F900000D810001B040343A6E720213200091AC1
:102FA0008540CA4023002F0CCB4086408440B2FBB2
:102FB000F7F04FF6FF711E43030029404B439C4638
:102FC0003B004343D21A1204330CB24613439C45D0
:102FD00009D95B19421E9D4200D9A0E09C4500D84A
:102FE0009DE002385B1962469B1AB3FBF7F94E4627
:102FF0004FF6FF7C7E439B1B1B049B466646534655
:103000004A461E405B464A4333439A420BD94E46DA
:103010005B19013E9D427ED89A427CD902267642B7
:10302000B4465B19E1449A1A4B46000403439C469C
:1030300085E720222B00121AD34087401F4333001C
:103040002100D340D1403A0C86409146B3FBF2F2C6
:1030500085404FF6FF700E431100384041438A46C9
:1030600049465143591A0904330CB3460B439A4558
:1030700007D9DB19511E9F424FD89A454DD9023AC4
:10308000DB195146591AB1FBF9F34E464FF6FF7959
:103090005E43891B09048A464E4659460E405146F6
:1030A00058433143884207D9C9195E1E8F4230D830
:1030B00088422ED9023BC919120413434FF6FF72FE
:1030C00017002A4016001F402D0C091A180C424305
:1030D0007E4368437D43370CAD187D19AA4203D95E
:1030E00080225202914648442A0C101881420ED385
:1030F00004D040F2000CF7E60B00D6E6624694409E
:103100004FF6FF722D041640AD19AC42F1D2013BCF
:10311000EFE73300D0E7B14685E70A00B1E71000DA
:1031200061E7023B40191FE7002310B59A4200D126
:1031300010BDCC5CC4540133F8E7030082189342FD
:1031400000D1704719700133F9E70023C25C0133E5
:10315000002AFBD1581E704700000103332E312E88
:10316000300000004275696C7420776974682052E1
:10317000656E6573617320416476616E636564207A
:10318000466C657869626C6520536F66747761720E
:1031900065205061636B6167652076657273696F46
:1031A0006E20332E312E3000F8B5C046F8BC08BC76
:1031B0009E467047F8B5C046F8BC08BC9E467047AE
:1031C0005465726D696E616C0000000052545400C9
:1031D00053454747455200FF060E0000A80E000069
:1031E000A80E0000A80E0000A80E0000A80E000007
:1031F000A80E0000A80E0000A80E0000A80E0000F7
:10320000A80E00008C0D0000B60D0000A80E0000F6
:10321000A80E0000A80E0000A80E0000A80E0000D6
:10322000A80E0000A80E0000A80E0000A80E0000C6
:10323000A80E0000A80E0000740E0000A80E0000EA
:10324000A80E00002E0E0000A80E0000DE0D0000EB
:10325000A80E0000A80E0000060E00003031323328
:103260003435363738394142434445464653505F3A
:1032700053554343455353203D3D20657272000032
:103280002E2E2F7372632F68616C5F656E74727976
:103290002E6300004865726520776520676F210AFC
:1032A000000000004154490D2069732073656E745D
:1032B00020746F2053494D434F4D00004154490D38
:1032C00000000000426162616E617A61720A000072
:1032D0004D49524F4F0A00FF696E697469616C690C
:1032E0007A65416C6C00FFFF0D0A2A2A20525F5359
:1032F00043495F554152545F4F70656E20415049BC
:10330000206661696C656420202A2A0D0A0000008D
:103310005B4552525D20496E2046756E6374696F3D
:103320006E3A20257328292C202573000D0A2A2A9D
:103330002020525F5343495F554152545F57726991
:10334000746520415049204661696C656420202ADB
:103350002A0D0A000D0A2A2A2020554152542045E0
:1033600072726F72204576656E742052656365696E
:1033700076656420202A2A0D0A0000000D0A2A2AF8
:103380002020525F5343495F554152545F436C6F55
:10339000736520415049206661696C656420202A6C
:1033A0002A200D0A000000004653505F5355434346
:1033B000455353203D3D2065727200002E2E2F7321
:1033C00072632F756172742E6300FFFF75617274F2
:1033D0005F696E697469616C697A650075617274A0
:1033E0005F7072696E7400FF73656E645F746F5F07
:1033F00073696D636F6D00FF000100000000002025
:103400000F00FFFF0000000009000000020C020D89
:10341000020E020F0000000000000000D91400009E
:1034200000000000F833000000010000040000204C
:103430000F00FFFF00000000020000000204020570
:1034400002060207000000000000000069150000ED
:1034500000000000283400000001000008000020E7
:103460000F00FFFF00000000010000000208020939
:10347000020A020B0000000000000000D913000047
:103480000000000058340000000100000C00002083
:103490000F00FFFF0000000000000000020002011A
:1034A00002020203000000000000000049130000B7
:1034B00000000000883400000080000000000000D0
:1034C00000800000010000000080000002000000F9
:1034D00000800000030000000080000004000000E5
:1034E000008000000C000000040000000D0000003F
:1034F000040000000E000000040000000F000000A7
:1035000000000000000100000400000001010000B4
:1035100004000000020100000000000003010000A0
:103520000000010304010000040000000501000088
:103530000400000006010000040000000701000074
:103540000000010008010000000001050901000061
:10355000000001050A010000040000000B0100004A
:10356000000000000C010000050000000D0100003B
:1035700000400000000200000400000004020000FF
:103580000000010405020000000001040602000022
:10359000050000000702000004000000080200000F
:1035A000000000000D020000000001000003000008
:1035B00000000104010300000000010402030000F8
:1035C00005000000030300000000000004030000E9
:1035D00004000000000400000000010501040000D8
:1035E00000000105020400000400000003040000C4
:1035F00004000000070400000000010508040000AA
:103600000000010509040000000000000A04000099
:10361000000000000B040000040000000005000092
:103620000000010301050000000001030205000085
:103630002F000000B834000012100F0F1D1B1C19C2
:103640001E1B1B191E1C1E1A1F1D1C1A0000000029
:1036500000000000000000000403010C0009140831
:10366000111C101918FFFFFF0600080010001800B9
:103670002000400060008000000180010002000482
:103680000008FFFF01000200080010000000000019
:083690006CF7FF7F0100000050
:1036980040000C0040000C0040000C0040000C00F2
:0836A8002D05000001050000E2
:020000040101F8
:10001800FFFFFFFFFFFFFFFFFFFFFFFFFFFFFFFFE8
:0C002800FFFFFFFFFFFFFFFFFFFFFFFFD8
:0400000300002A9936
:00000001FF
