:1000000088060020F50E0000E10D0000F10E000052
:10001000F10E0000F10E0000F10E0000F10E0000E4
:10002000000000000000000000000000F10E0000D1
:10003000F10E000000000000F10E0000F10E0000C3
:10004000490A0000BD090000D90A00001D0B00008C
:10005000490A0000BD090000D90A00001D0B00007C
:10006000490A0000BD090000D90A00001D0B00006C
:10007000490A0000BD090000D90A00001D0B00005C
:10008000490A0000BD090000D90A00001D0B00004C
:100090000000000000000000000000000000000060
:1000A0000000000000000000000000000000000050
:1000B0000000000000000000000000000000000040
:1000C000FFFFFFFFFFFFFFFFFFFFFFFFFFFFFFFF40
:10040000FFFFFFFFDFCEFFFFFCFF0F00FFFF0F002E
:10041000FCFF0F00FFFF0F00FCFF0F00FFFF0F00AE
:10042000FCFF0F20FFFF0F20FCFF7F40FFFF7F40FE
:10043000FCFF0D40FFFF0D40FFFFFFFFFFFFFFFF31
:10044000FFFFFFFFFFFFFFFFFFFFFFFFFFFFFFFFBC
:10045000FFFFFFFFFFFFFFFFFFFFFFFFFFFFFFFFAC
:10046000FFFFFFFFFFFFFFFFFFFFFFFFFFFFFFFF9C
:10047000FFFFFFFFFFFFFFFFFFFFFFFFFFFFFFFF8C
:10048000FFFFFFFFFFFFFFFFFFFFFFFFFFFFFFFF7C
:10049000FFFFFFFFFFFFFFFFFFFFFFFFFFFFFFFF6C
:1004A000FFFFFFFFFFFFFFFFFFFFFFFFFFFFFFFF5C
:1004B000FFFFFFFFFFFFFFFFFFFFFFFFFFFFFFFF4C
:1004C000FFFFFFFFFFFFFFFFFFFFFFFFFFFFFFFF3C
:1004D000FFFFFFFFFFFFFFFFFFFFFFFFFFFFFFFF2C
:1004E000FFFFFFFFFFFFFFFFFFFFFFFFFFFFFFFF1C
:1004F000FFFFFFFFFFFFFFFFFFFFFFFFFFFFFFFF0C
:1005000010B540F22004C2F20004237863B940F22F
:100510000003C0F200032BB141F2B820C0F200008A
:1005200000E000BF0123237010BDC04640F200036D
:10053000C0F2000310B54BB140F2240141F2B820E3
:10054000C2F20001C0F2000000E000BF10BDC046D2
:1005500041F2101140F28C0010B5C0F20001C2F25D
:10056000000000F08DFB41F2E00140F2E400C0F237
:100570000001C2F2000000F0D9F810BD40F23C03C7
:100580000122C2F200031A707047C04610B5FFF78F
:10059000DFFF42F6E06000F01FFC41F2D00140F2C4
:1005A000E4000522C0F20001C2F2000000F034F8BD
:1005B00042F6E06000F010FC41F2D80140F2E400A5
:1005C0000622C0F20001C2F2000000F025F841F658
:1005D0000030C0F2B70000F0FFFBDAE710B538B921
:1005E0004CF2000390220121C4F27E03995410BD05
:1005F0000228FCD141F2101140F28C00C0F200013F
:10060000C2F2000000F03CFBF1E7C04610B5FFF776
:10061000BDFF002010BDC0467B2330B5046AA5781D
:100620002B40A37083789B079B0FD21A0261802214
:10063000CB18C360A3781343A370032382781340BD
:10064000022B03D00B78E370002030BD4FF6006220
:100650000B881343E381F7E7F0B51F25012415400C
:10066000AC404EF20015C64653092033CEF20005C9
:100670009B0000B588465C51BFF34F8FBFF36F8F6F
:10068000130046F20004C033C4F200049B001D595D
:10069000114E4EF2001135401D51FF240325CEF2BC
:1006A00000018C46210040F200371540ED00A940C2
:1006B00093089B006344DE5992008E4341468901B2
:1006C0000C40AC403443DC5140F20823C2F200033A
:1006D000D05080BCB846F0BDFFFFFEFFF0B5C64667
:1006E00000B50500806A84B08C4690466C46D8B14F
:1006F0002300060086CE86C336681E60EB691B7831
:1007000003606346836043460371EB6AC3606B6AB0
:100710009847AB6A23B107CC07C31A00236813605C
:1007200004B080BCB846F0BD2000E7E743F6000205
:10073000C0F200229446F0B54546DE4657464E4686
:100740000B78E0B563445B010362002303704A69E0
:100750000D0042628A69C161C26203220121836283
:100760008378040093430B4383706B7883B0022B30
:1007700004D1837893430222134383700B22200019
:10078000AA56A97AFFF768FF05222000AA56297900
:10079000FFF762FF07222000AA56A979FFF75CFF46
:1007A00009222000AA56297AFFF756FFEFF3108698
:1007B000012080F31088802147F200032F7809067A
:1007C000F940C4F204031A688A431A601B6886F36E
:1007D00010880022236A29789A701A715A729A72C4
:1007E000DA725A8340F20F22CA40104201D04022EE
:1007F000DA7406221A7709B96E4A9A82AA78E978D9
:100800001201C9000A436978012900D1CDE00239FB
:10081000481E8141102049420140E231D2B21A7093
:100820000222ED699971297BFF2649000A402021A7
:100830005A736A78A878D2014001014032400A43D5
:10084000002128781972811E0190012900D8A4E0A6
:1008500003266968D2B2DA718A7848785A701A78B1
:100860003040B24302431A70CA7859369A74D87924
:100870000A78B04332400243DA710022E26022611A
:100880006261A261E26946F200019146527940F24A
:100890001F0C52B21000C030C4F200018000465854
:1008A000454F40F2C00A3E4046506646B8460127D2
:1008B0001640B7404EF20016CEF20006B34640F2A4
:1008C0008016520992005A44975117604A46D27ACC
:1008D000404652B292445746BF00BA467F5807403E
:1008E0005046475067461740BA4601275046874052
:1008F0004EF20010CEF200008346520992005A4494
:10090000975117604A4640F2C00AD27952B29244D7
:1009100050468000824640580700404607405046F7
:10092000475067461740BA460127504687404EF267
:100930000010CEF200008346520992005A449751AB
:1009400017604A4640F2C009527A474652B2914473
:100950004846800081464058074048464750614617
:10096000012011408840520992005A449051106071
:100970000322019F002017406D3217439F706B893F
:10098000238144F65513C5F24333636003B0F0BCD2
:10099000BB46B246A946A046F0BD5E70022801D112
:1009A00010210A43D2B2DA7167E73F310A43B2310C
:1009B00034E7C04600F8FFFFFFFFFEFF70B5EFF31E
:1009C0000383103B5BB21A0046F20001C032920072
:1009D000C4F2000150581B4C9B002040505040F284
:1009E0000822C2F200029858C3691B6913B1036957
:1009F00013B170BD03696BB97F23026A91780B4014
:100A000004210B439370002380220021C360FFF771
:100A100065FEEEE703218278114002290AD0C16801
:100A2000056A0C78EC709207920F9B1A8A18036182
:100A3000C260DDE74FF60065C1680C882C43056A8B
:100A4000EC81F0E7FFFFFEFF10B582B0EFF3038308
:100A5000103B5BB21A0046F20001C0329200C4F2B1
:100A6000000150581B4C9B002040505040F208227F
:100A7000C2F200029C580323A2781340022B22D01A
:100A8000236A5979C9B2A36901912BB904222000C4
:100A9000FFF724FE02B010BD9207920F606901A912
:100AA00000F0D0FAA37862699B079B0FD2186261AD
:100AB000A269D31AA361002BECD1012200212000EE
:100AC000FFF70CFEE6E740F2FF11236A1B8A19408C
:100AD000D9E7C046FFFFFEFF10B5EFF3038440F2F5
:100AE0000823103C64B2A200C2F20003D0587B235A
:100AF000026AC0349178A4000B4093700021022256
:100B0000FFF7ECFD46F20003C4F20003E25802498D
:100B10000A40E25010BDC046FFFFFEFF70B5EFF384
:100B2000038440F20823103C64B2C2F20003A20026
:100B3000D058032382781340022B1DD0036A5979C1
:100B4000C9B238221D792A40ED0604D51D7FED0774
:100B500001D440252A4338261D79C034B5431D7180
:100B6000FFF7BCFD46F20003A400C4F20003E25804
:100B700004490A40E25070BD40F2FF11036A1A8A2C
:100B80001140DEE7FFFFFEFFF0B5DE4657464E465A
:100B90004546E0B583B0EFF31082012383F310885C
:100BA00040F20423C2F2000301931B6833B940F6FC
:100BB0000054C4F20404E3704033E370019C2368E2
:100BC0000133236082F310880388C3B30B6840F6B7
:100BD0000004984680235B029C46284B00229A46DC
:100BE000C4F204040DE0330A9946FF231E404B462D
:100BF0001B019B199B0019510132038892B2934249
:100C00001DD96346D10041448E8809681942EAD053
:100C1000330A9946FF231E404B4657461B019D1938
:100C2000AD00A9462D593D40AB464D465F462F517C
:100C300055460D40AB464D465F462F51D9E7EFF381
:100C40001082012383F31088019B1B681BB101995B
:100C50000B68013B0B60019B1B6833B940F60051E8
:100C6000C4F20401CB708033CB7082F3108803B0E0
:100C7000F0BCBB46B246A946A046F0BDFFFFFEFF52
:100C800045F25423020010B5C5F24F03080013606B
:100C90000431FFF779FF002010BDC0464EF200037B
:100CA000A022C4F201039A5C824217D036229A5CD9
:100CB0001AB93C215A5CD207FCD54EF20002A021A1
:100CC000C4F20102535CDB06FCD450544EF2000225
:100CD000A021C4F20102535CDB06FCD47047C0467D
:100CE0004EF20003262240F20C01C4F20103985C8C
:100CF0001B6A8000C2F2000141585B015B0F40F2A9
:100D00008802D940C2F2000211607047F8B54EF275
:100D1000000440F2FE332D4AC4F20104E2524CF2C8
:100D20000003002743F6C872C4F27E039F5440F2CA
:100D30000C0546F60043C2F20005C0F2DC232B602E
:100D400041F20023C0F27A036B6048F20003AB600B
:100D50002623EF602F61E25C236A9200AA585B01B0
:100D60005B0F40F28806DA40C2F2000640F2804390
:100D7000326001220020E254FFF790FF36233C212D
:100D8000E754635CDB07FCD501213123E1544FF6C6
:100D9000C473C4F27E03197000202623E05401308E
:100DA000FF302062E05C236A800028585B015B0F03
:100DB000D84040F2FE333060054843F6C872E05236
:100DC0004CF20003C4F27E039954F8BD03A5FFFF63
:100DD00000A5FFFF7047C04601380028FCD17047CE
:100DE000F8B546F2000340F2401240F240070024FA
:100DF0000126C4F200039D5AC2F20007ADB22B00D7
:100E0000E340E0B21E4203D0A300DB5903B1984790
:100E10000134102CF3D146F2000340F23012C4F238
:100E200000039D52F8BDC04646F200000023C4F204
:100E3000000041F29022C0F200029A1811781A00C4
:100E4000C032920001331150202BF2D17047C046BE
:100E500070B5EFF31081012383F3108840F2800313
:100E60004000C2F200031A5A1AB11A5A013A92B259
:100E70001A521B5A83B94EF2000240F2FE3541F27B
:100E8000B024C4F20102565B054BC0F20004205AA4
:100E9000334383439BB2535381F3108870BDC046E4
:100EA00000A5FFFF70B5EFF31081012383F31088D5
:100EB00040F280024000C2F20002135A83B94EF29F
:100EC000000441F2B02540F2FE36C4F20104C0F243
:100ED0000005A35B2D5A2B434AF200552B43A35325
:100EE000135A01339BB2135281F3108870BDC04670
:100EF00000BE704710B500F003F8FFF787FBFEE770
:100F000040F200034EF6005270B5CEF20002C0F27D
:100F1000000382B093600020FFF760FBFFF7F6FE4E
:100F20006B460026DC1D267001202378FFF7BAFFF0
:100F3000EFF31081012585F3108847F20003C4F216
:100F400004035A683D4802405A605A6881F3108889
:100F500040F60001C4F204010A68D207D20F2270E1
:100F60000A68D207D20F22700A68D207D20F227005
:100F7000EFF3108185F310888022586852050243F0
:100F80005A605B6881F310880120FFF761FF012040
:100F9000FFF724FB40F60053294AC4F200039E8069
:100FA0001A8040F28822C2F200029A6040F28862FF
:100FB000C2F20002DA6046F2000240F2201141F271
:100FC0000000C4F20002505240F2882240F2200099
:100FD000C2F20002C2F200009D800021121A00F04D
:100FE0003AF840F2000040F20C0241F2BC21C2F299
:100FF0000000C2F20002121AC0F2000100F022F852
:1010000040F2040540F20803C2F20005C2F20003F8
:101010005B1B9E10002B05DD002408CD0134984792
:10102000A642FADCFFF75CFE0220FFF7D7FAFFF7D3
:10103000FBFE0020FFF7CEFE02B070BDFFFFFFEF0A
:1010400000A5FFFF002310B59A4200D110BDCC5C73
:10105000C4540133F8E703008218934200D170476B
:1010600019700133F9E7FFFF4275696C74207769E5
:1010700074682052656E6573617320416476616E99
:1010800063656420466C657869626C6520536F66A1
:101090007477617265205061636B61676520766566
:1010A0007273696F6E20332E312E3000332E312E45
:1010B0003000000000000103F8B5C046F8BC08BCD1
:1010C0009E467047F8B5C046F8BC08BC9E467047BF
:1010D000544553540A00000044454E454D450A000E
:1010E00000000000020002010202020300000000F2
:1010F000000000007D05000000000000001100005D
:1011000000010000000000200F00FFFF00000000B1
:101110002F000000181100000080000000000000F7
:1011200000800000010000000080000002000000BC
:1011300000800000030000000080000004000000A8
:10114000008000000C000000040000000D00000002
:10115000040000000E000000040000000F0000006A
:101160000000000000010000040000000101000078
:101170000400000002010000000000000301000064
:10118000000001030401000004000000050100004C
:101190000400000006010000040000000701000038
:1011A0000000010008010000000001050901000025
:1011B000000001050A010000040000000B0100000E
:1011C000000000000C010000050000000D010000FF
:1011D00000400000000200000400000004020000C3
:1011E00000000104050200000000010406020000E6
:1011F00005000000070200000400000008020000D3
:10120000000000000D0200000000010000030000CB
:1012100000000104010300000000010402030000BB
:1012200005000000030300000000000004030000AC
:10123000040000000004000000000105010400009B
:101240000000010502040000040000000304000087
:10125000040000000704000000000105080400006D
:101260000000010509040000000000000A0400005D
:10127000000000000B040000040000000005000056
:101280000000010301050000000001030205000049
:1012900012100F0F1D1B1C191E1B1B191E1C1E1AC2
:1012A0001F1D1C1A000000000000000000000000CC
:0C12B00001000200080010000000000017
:0C12BC0040000C002D05000001050000A2
:020000040101F8
:10001800FFFFFFFFFFFFFFFFFFFFFFFFFFFFFFFFE8
:0C002800FFFFFFFFFFFFFFFFFFFFFFFFD8
:0400000300000EF5F6
:00000001FF
