:10000000300C0020453500002B3300005335000034
:1000100053350000533500005335000053350000C0
:100020000000000000000000000000005335000048
:100030005335000000000000533500005335000028
:10004000412300005D220000052400005924000027
:10005000412300005D220000052400005924000017
:10006000412300005D220000052400005924000007
:10007000412300005D2200000524000059240000F7
:10008000412300005D2200000524000059240000E7
:10009000491E00009F1E0000251F0000931F000046
:1000A0000000000000000000000000000000000050
:1000B0000000000000000000000000000000000040
:1000C000FFFFFFFFFFFFFFFFFFFFFFFFFFFFFFFF40
:1000D000FFFFFFFFFFFFFFFFFFFFFFFFFFFFFFFF30
:10040000FFFFFFFFDFCEFFFFFCFF0F00FFFF0F002E
:10041000FCFF0F00FFFF0F00FCFF0F00FFFF0F00AE
:10042000FCFF0F20FFFF0F20FCFF7F40FFFF7F40FE
:10043000FCFF0D40FFFF0D40FFFFFFFFFFFFFFFF31
:10044000FFFFFFFFFFFFFFFFFFFFFFFFFFFFFFFFBC
:10045000FFFFFFFFFFFFFFFFFFFFFFFFFFFFFFFFAC
:10046000FFFFFFFFFFFFFFFFFFFFFFFFFFFFFFFF9C
:10047000FFFFFFFFFFFFFFFFFFFFFFFFFFFFFFFF8C
:10048000FFFFFFFFFFFFFFFFFFFFFFFFFFFFFFFF7C
:10049000FFFFFFFFFFFFFFFFFFFFFFFFFFFFFFFF6C
:1004A000FFFFFFFFFFFFFFFFFFFFFFFFFFFFFFFF5C
:1004B000FFFFFFFFFFFFFFFFFFFFFFFFFFFFFFFF4C
:1004C000FFFFFFFFFFFFFFFFFFFFFFFFFFFFFFFF3C
:1004D000FFFFFFFFFFFFFFFFFFFFFFFFFFFFFFFF2C
:1004E000FFFFFFFFFFFFFFFFFFFFFFFFFFFFFFFF1C
:1004F000FFFFFFFFFFFFFFFFFFFFFFFFFFFFFFFF0C
:1005000010B540F2C004C2F20004237863B940F28F
:100510000003C0F200032BB143F67C50C0F2000090
:1005200000E000BF0123237010BDC04640F200036D
:10053000C0F2000310B54BB140F2C40143F67C5049
:10054000C2F20001C0F2000000E000BF10BDC046D2
:1005500080B582B000AF40F24853C2F200037B6026
:100560007B6803221A617B6803225A617A6843F62A
:100570007C03C0F2000393617A6840F2DC03C2F2AC
:100580000003D3617B6840F200421A627B6800225C
:100590009A627B6800225A627B680022DA627A687B
:1005A00043F67C03C0F2000313667A6840F2DC4332
:1005B000C2F2000353667B6810229A667B680022B1
:1005C0001A677B680022DA667B6800225A677B68BC
:1005D000DA1D43F68803C0F200031000190004235B
:1005E0001A0003F0FFF8BFF35F8F7A6843F68C03BD
:1005F000C0F200031000190007231A0003F0F2F8FC
:10060000BFF35F8F7B6820229A71BFF35F8FC04674
:10061000BD4602B080BD80B58AB000AFF860B96059
:100620007A6000233B62FB68DB68FB61FB681B6947
:10063000BB61BA69FB699A4205D9BA69FB69D31AE9
:10064000013B7B6207E0FB689A68B969FB69CB1ADA
:10065000D318013B7B62FB689A68FB69D21A7B6AFC
:10066000934200D913007B627A6A7B68934200D977
:1006700013007B62FB685A68FB69D3187B617A6A56
:10068000B9687B69180003F0ADF83A6A7B6AD31841
:100690003B62BA687B6AD318BB607A687B6AD31AFC
:1006A0007B60FA697B6AD318FB61FB689B68FA6917
:1006B0009A4201D10023FB61BFF35F8FFB68FA69A7
:1006C000DA607B68002BB1D13B6A1800BD460AB0E6
:1006D00080BD80B588B000AFF860B9607A60FB6813
:1006E000DB68FB61FB689A68FB69D31ABB61BA6976
:1006F0007B689A4212D9FB685A68FB69D3183B6140
:100700007A68B9683B69180003F06CF8BFF35F8F33
:10071000FA697B68D218FB68DA6020E0BB697B610C
:10072000FB685A68FB69D3183B617A69B9683B6911
:10073000180003F057F87A68BB69D31A7B61FB682D
:100740005B683B61BA68BB69D1187A693B6918007C
:1007500003F048F8BFF35F8FFB687A69DA60C04640
:10076000BD4608B080BD80B586B000AF78607B68BC
:100770001B693B617B68DB68FB603A69FB689A42F6
:1007800008D87B689A68FB68D21A3B69D318013B8A
:100790007B6104E03A69FB68D31A013B7B617B69AA
:1007A0001800BD4606B080BD80B588B000AFF860C7
:1007B000B9607A60BB68BB61FB685A1C13005B00C0
:1007C0009B18DB0040F24852C2F200029B187B618A
:1007D0007B695B69022B2DD035D813B1012B16D064
:1007E00031E07B691800FFF7BEFF03003B613A6907
:1007F0007B689A4202D20023FB6127E07B68FB61A1
:100800007A68B9697B691800FFF763FF1EE07B69AE
:100810001800FFF7A8FF03003B613A697B68934229
:1008200000D91300FB61FA69B9697B691800FFF709
:1008300050FF0BE07A68B9697B691800FFF7EBFE9F
:100840000300FB6102E00023FB61C046FB69180066
:10085000BD4608B080BD80B588B000AFF860B96013
:100860007A6040F24853C2F20003FB61FB691B78D7
:100870005BB20BB9FFF76CFEEFF31083012181F33C
:100880001088BB617A68B968FB681800FFF78CFFB5
:1008900003007B61BB6983F310887B691800BD4648
:1008A00008B080BD80B584B000AF78600A00FB1C42
:1008B0001A707B689B68FB60FB685A1C7B685B68EE
:1008C0009A420FD87B681A68FB68D318FA1C127812
:1008D0001A70FB685A1C7B689A607B68DB685A1C3C
:1008E0007B68DA607B689A687B685B689A4215D19E
:1008F0007B6818697B6819687B689B681A00FFF73A
:10090000AAFF02007B689B689A4204D07B680122A0
:100910005242DA6002E07B6800229A60C046BD461F
:1009200004B080BD80B58AB000AFF860B9607A606D
:100930003B60BB683B6201237B620123FB6107E0F4
:100940003A6A7B68B2FBF3F33B62FB690133FB61FC
:100950003A6A7B689A42F3D23A68FB699A4201D9B3
:100960003B68FB617B6B012213404BBB3B6B3BB392
:100970007B6B0222134033B13B6823B91B23FB1866
:1009800030221A7003E01B23FB1820221A700FE09C
:100990003B6B013B3B631B23FB1800229A56FB6811
:1009A00011001800FFF77EFFFB68DB68002B06DBF9
:1009B0003B6B2BB1FA693B6B9A42E9D300E0C0462E
:1009C000FB68DB68002B56DB3B68012B03D93B68D7
:1009D000013B3B6009E0BA687B6AB2FBF3F37B61E1
:1009E0007A697B689A4200D204E07B6A7A68534352
:1009F0007B62E9E7BA687B6AB2FBF3F37B617B69F0
:100A00007A6A5343BA68D31ABB6043F61813C0F22C
:100A100000037A699B1800229A56FB68110018009F
:100A2000FFF740FFFB68DB68002B08DB7A6A7B6816
:100A3000B2FBF3F37B627B6A002BDBD100E0C046A4
:100A40007B6B01221340B3B13B6BA3B10BE03B6B5B
:100A5000013B3B63FB6820211800FFF723FFFB6885
:100A6000DB68002B06DB3B6B2BB1FA693B6B9A42D0
:100A7000EDD300E0C046C046BD460AB080BD90B58B
:100A800089B002AFF860B9607A603B60BB68DA1782
:100A90009B1853403B6101237B6107E07B683A6907
:100AA00092FBF3F33B617B6901337B617B683A69BD
:100AB0009A42F3DA3A687B699A4201D93B687B61D2
:100AC000BB6A4BB1BB68002B03DBFB6A04221340FB
:100AD00013B1BB6A013BBB62FB6A022213400BB13C
:100AE0003B68D3B1FB6A01221340B3B9BB6AA3B11F
:100AF0000BE0BB6A013BBB62FB6820211800FFF7DB
:100B0000D1FEFB68DB68002B06DBBB6A2BB17A6980
:100B1000BB6A9A42EDD300E0C046FB68DB68002B5D
:100B200048DBBB68002B08DABB685B42BB60FB6834
:100B30002D211800FFF7B6FE08E0FB6A04221340DF
:100B400023B1FB682B211800FFF7ACFEFB68DB68C4
:100B5000002B2FDBFB6A02221340E3B1FB6A012268
:100B60001340C3B93B68B3B9BB6AA3B10BE0BB6A1E
:100B7000013BBB62FB6830211800FFF793FEFB6866
:100B8000DB68002B06DBBB6A2BB17A69BB6A9A4231
:100B9000EDD300E0C046FB68DB68002B0ADBB968D8
:100BA0003C687A68F868FB6A0193BB6A009323008B
:100BB000FFF7B8FEC046BD4607B090BD90B5A3B0E4
:100BC00002AFF860B9607A6050217B181022BA1821
:100BD0001A607B1840225A607B1800229A607B18AA
:100BE000FA681A617B180022DA607F217B18BA68E4
:100BF00012781A70BB680133BB607B181B785BB23C
:100C0000002B00D166E17B181B785BB2252B00D04E
:100C10004FE100233B670123BB677F217B18BA6844
:100C200012781A707B181B785BB2302B10D027DC3F
:100C30002D2B05D024DC232B1AD02B2B10D01FE01A
:100C40003B6F012213433B67BB680133BB601AE073
:100C50003B6F022213433B67BB680133BB6012E06A
:100C60003B6F042213433B67BB680133BB600AE060
:100C70003B6F082213433B67BB680133BB6002E054
:100C80000023BB67C046BB6F002BC6D10023FB66A9
:100C90007F217B18BA6812781A707B181B785BB2B8
:100CA0002F2B14DD7B181B785BB2392B0FDCBB6854
:100CB0000133BB60FA6E13009B009B185B001A00A7
:100CC0007B181B785BB2D318303BFB66E0E7002350
:100CD0007B677F217B18BA6812781A707B181B78A3
:100CE0005BB22E2B21D1BB680133BB607F217B1807
:100CF000BA6812781A707B181B785BB22F2B14DD40
:100D00007B181B785BB2392B0FDCBB680133BB60EF
:100D10007A6F13009B009B185B001A007B181B78EE
:100D20005BB2D318303B7B67E0E77F23FB18BA68E0
:100D300012781A707F22BB181B785BB26C2B04D020
:100D4000BB181B785BB2682B08D1BB680133BB6052
:100D50007F23FB18BA6812781A70EBE77F23FB1821
:100D60001B785BB2252B00D197E000DA9CE0782B52
:100D700000DD99E0582B00DA96E0583B202B00D993
:100D800092E09A00634BD3181B689F467B681B68F0
:100D9000191D7A6811601B68BB6767217B18BA6FE1
:100DA0001A707B1800229A565023FB181100180065
:100DB000FFF778FD79E07B681B68191D7A68116080
:100DC0001B68BB677A6FB96F5023F8183B6F0193AC
:100DD000FB6E009313000A22FFF751FE65E07B686B
:100DE0001B68191D7A6811601B68BB67B96F7A6F41
:100DF0005023F8183B6F0193FB6E009313000A22F7
:100E0000FFF790FD51E07B681B68191D7A6811603F
:100E10001B68BB67B96F7A6F5023F8183B6F01935B
:100E2000FB6E009313001022FFF77CFD3DE07B6812
:100E30001B68191D7A6811601B68BB667F217B18CF
:100E4000BA6E12781A70BB6E0133BB667B181B78C2
:100E50005BB26BB17B1800229A5650243B191100EB
:100E60001800FFF71FFD3B19DB68002BE6DA1CE0DA
:100E7000C0461AE07B681B68191D7A6811601B6800
:100E8000BB67B96F5023F818002301930823009320
:100E900008231022FFF746FD07E05023FB18252109
:100EA0001800FFF7FFFC00E0C046BB680133BB60E1
:100EB00009E07F23FB1800229A565023FB181100EB
:100EC0001800FFF7EFFC5023FB18DB68002B00DB5A
:100ED0008BE600E0C0465022BB18DB68002B12DD19
:100EE000BB189B683BB1BB189A681023F918FB68C4
:100EF0001800FFF7B0FC50217B18DA687B189B685C
:100F0000D2187B18DA605023FB18DB681800BD4646
:100F100021B090BD943800000EB480B585B000AF0C
:100F200078602023FB18BB600823FA18F9697B68F6
:100F30001800FFF743FE0300FB60FB681800BD4686
:100F400005B080BC08BC03B0184780B582B000AFC4
:100F500040F2F053C2F20003012240F205111800E2
:100F600001F07BFB43F68C32C0F2000240F250638A
:100F7000C2F200031100180000F0A7FA03007B6022
:100F80007B685A1E9341DAB27B680E3B591E8B4137
:100F9000DBB21343DBB2D3B143F62813C0F2000334
:100FA00043F6B012C0F2000243F64011C0F2000155
:100FB0000020FFF7B1FF7B684BB17A6843F65C1302
:100FC000C0F2000319000020FFF7A6FF00BE7B68F7
:100FD000DBB21800BD4602B080BD80B500AF43F65D
:100FE0002852C0F2000240F2F053C2F20003110096
:100FF000180001F005FBFFF7A8FFC046BD4680BD05
:1010000080B586B000AF0C23FA1843F69C13C0F2EB
:10101000000303CB03C21B8813803A1D43F6A813B9
:10102000C0F2000319681160998891809B799371CF
:101030001623FB1800221A80FFF7CFFF40F2F0536F
:10104000C2F20003012240F20341180001F005FB47
:1010500043F69413C0F20003180000F088F83F2014
:1010600000F02AF840F2E831012002F0E1F8F6E75A
:1010700080B582B000AF0200FB1D1A70FB1D1B780B
:1010800033B94CF20003C4F27E039022012199543B
:10109000FB1D1B78022B0BD143F62852C0F2000235
:1010A00040F2F053C2F200031100180001F0A8FA58
:1010B000C046BD4602B080BD80B584B000AF02001E
:1010C000FB1D1A701723FB6040F2F053C2F20003BD
:1010D000012240F20611180001F0BFFA40F280012F
:1010E000C2F2000140F25060C2F20000022301226D
:1010F00000F07FFA0300BB60BB6883B143F62C238A
:10110000C0F2000343F64C22C0F2000243F6D411B1
:10111000C0F200010020FFF7FFFEBB680AE040F2CA
:10112000F053C2F20003002240F20611180001F051
:1011300094FABB681800BD4604B080BD80B582B08B
:1011400000AF78607B681B79012B06D140F2EC433D
:10115000C2F2000301221A7005E040F2EC43C2F231
:10116000000302221A70C046BD4602B080BD90B591
:1011700087B000AF786000237B610F243B19002209
:101180001A704FF60043C0F2FF333B617B68BB60CF
:10119000BB68180002F037FB02003B191A7040F2DE
:1011A000ED43C2F2000300221A703B191A787968E5
:1011B00040F21863C2F20003180000F07FFF030042
:1011C0007B617B6953B343F6A023C0F2000343F66F
:1011D0004032C0F2000243F68421C0F20001002038
:1011E000FFF79AFE7B692CE040F2ED43C2F2000368
:1011F0001B78DBB2782B11D143F6C823C0F2000371
:1012000043F64032C0F2000243F68421C0F20001EE
:101210000020FFF781FE40F22C1312E040F2ED4374
:10122000C2F200031B78DBB2022B05D03B69013B05
:101230003B613B69002BD7D13B690BB914237B6120
:101240007B691800BD4607B090BD80B500AFFFF7C1
:10125000D7FE00231800BD4680BD80B582B000AF28
:10126000EFF303837B607B683B603B001B88DB05FF
:10127000DB0D9BB2DBB2103BDBB25BB21800BD46AC
:1012800002B080BD80B582B000AF02003960FB1DA6
:101290001A70FB1D00229A5640F2AC73C2F2000392
:1012A00092003968D150C046BD4602B080BDFFFFF4
:1012B00080B582B000AF0200FB1D1A7046F2000339
:1012C000C4F20003FA1D127852B2C0329100CA581B
:1012D00003480240CA50C046BD4602B080BDC04669
:1012E000FFFFFEFF80B584B000AF0200FB1D1A7047
:1012F000FB1D1B785BB21800FFF7DAFFFB1D1B78A4
:101300005BB2FB60FB681F22134019004EF2001312
:10131000CEF20003FA1D127852B252090120884021
:10132000010060329200D150C046BD4604B080BD7D
:1013300090B585B000AFB9607A600F243B19021CEC
:101340001A704EF20013CEF200033A19127852B21C
:101350009208C0329200D3583A1912781100032231
:101360000A40D200FF2191400A00D2431A401000E7
:10137000BB689B01FF221A403B191B78190003230D
:101380000B40DB009A4011004EF20013CEF2000336
:101390003A19127852B292080143C0329200D150E9
:1013A0007A683B191B785BB211001800FFF76AFFDF
:1013B000C046BD4605B090BD80B584B000AF020008
:1013C000FB1D1A70FB1D1B785BB2FB60FB681F22C4
:1013D000134019004EF20013CEF20003FA1D1278EA
:1013E00052B252090120884001009200D150C046FB
:1013F000BD4604B080BD80B582B000AF0200FB1DC9
:101400001A70FB1D1B785BB21800FFF76BFFFB1D0A
:101410001B785BB21800FFF7CFFFC046BD4602B095
:1014200080BD80B584B000AF0200FB1D1A70FB1DAB
:101430001B785BB2FB60FB681F22134019004EF261
:101440000013CEF20003FA1D127852B252090120A5
:101450008840010020329200D150BFF34F8FC04628
:10146000BFF36F8FC046C046BD4604B080BD90B587
:1014700085B000AFB9607A600F243B19021C1A7066
:101480007A68B9683B191B785BB21800FFF750FF08
:101490003B191B785BB21800FFF7ADFFC046BD4695
:1014A00005B090BD80B582B000AF0200FB1D1A7080
:1014B000FB1D00229A5640F2AC73C2F20003920068
:1014C000D3581800BD4602B080BD80B586B000AFCD
:1014D0007860396000237B617B683B613B690BB9B5
:1014E000012382E03B691A6845F24903C5F25323A0
:1014F0009A4201D10E2378E03B680BB9012374E0D6
:101500003B689B690BB901236FE03B681B6A0BB911
:1015100001236AE03B681B78012B02D940F27A5321
:1015200063E03B685B785BB2002B01DA01235CE08F
:101530003B689B785BB2002B01DA012355E03B68E6
:10154000DB785BB2002B01DA01234EE03B681B79AC
:101550005BB2002B01DA012347E03B685B7A012B89
:1015600005D13B689B7A012B01D006233DE03B6807
:101570001B6AFB603B685B7A23B9FB681B780BB97D
:10158000062332E03B68180000F04BF803007B6153
:101590007B690BB17B6928E03B693A685A603B681C
:1015A0009A693B695A623B68DA693B69DA623B696E
:1015B00000229A623B695B681B7840F2207CC0F293
:1015C000400C63441B021A003B699A603B69180097
:1015D00000F081F83B69180000F0B5F93A6945F26E
:1015E0004903C5F2532313607B691800BD4606B05A
:1015F00080BD80B586B002AFF860B9607A601A002D
:10160000FB1C1A707A68B968F868FB1C1B78009399
:101610001300002200F034FA03001800BD4604B0A5
:1016200080BD80B586B000AF786000237B617B68A9
:101630001B693B617B681B7840F2207CC0F2400C48
:1016400063441B020433FB603B69CBB13B695B68BD
:101650001B68802212051A603B695B681B68FA6888
:101660009A603B699B681A683B6918683B695B68CC
:101670001900904703007B617B690BB17B6926E011
:101680007B685B69BB60BB6803B3BB685B681B6856
:10169000802212031A60BB685B681B68FA685A6094
:1016A000BB689B681A68BB681868BB685B681900F0
:1016B000904703007B617B6943B13B6933B13B6970
:1016C0009B681A6A3B691B68180090477B69180081
:1016D000BD4606B080BD80B590B000AF78600023F5
:1016E000FB6300233B620023BB6300237B63002377
:1016F0003B630023FB620023BB6200237B62002369
:10170000FB61FB6B80221343FB63FB6B20221343C3
:10171000FB63FB6B10221343FB637B685B685B7AA4
:101720000BB9082300E00023FA6B1343FB637B68CB
:101730005B685B7A0BB9102300E000237A6B1343DC
:101740007B637B685B689B7A1A007B6A13437B62CE
:101750007B685B68DB7A5B007A6A13437B627B6839
:101760005B685B7B1B037A6A13437B627B685B6805
:101770001B691BB1FB6B20221343FB637B685B6817
:101780001B6ABB61BB691B7823B9FB6B01229343C6
:10179000FB6303E0FB6B01221343FB63BB695B78D4
:1017A000DB01DB431A00FB6B1340FB63BB695B7817
:1017B0005A00BB695B785B0113431A00FB6B134350
:1017C000FB633B6A0F2293433B62BB699B781A0021
:1017D000BB69DB789A4013003A6A13433B627B6A29
:1017E000702293437B62BB69DB781B017A6A1343E7
:1017F0007B62BB691B795BB1BB6B20221343BB636C
:10180000BB691B79022B03D1BB6B10221343BB6353
:10181000BB695B795BB17B6B012213437B63BB6963
:101820005B79012B03D17B6B022213437B63BB6982
:101830009B791A00FB691343FB61BB691B7A9B0709
:101840009B0FDBB29B007A6A13437B627B685B6809
:101850005B7A6BB97B6A4EF2000213437B62BB6911
:101860005B7A3B63BB699B7AFB62BB69DB7ABB62D9
:1018700000237B61EFF31083BB60BB687B610123B6
:10188000FB60FB6883F31088C04647F20003C4F294
:1018900004031A687B685B681B78190013235B1AC2
:1018A000012199400B00D94347F20003C4F204031D
:1018B0000A401A6047F20003C4F204031B687B6904
:1018C0003B613B6983F31088C0467B689B68DB788B
:1018D0007B689B680022DA707B689B68FA6BD2B2E7
:1018E0001A707B689B683A6AD2B25A707B689B68B0
:1018F000BA6BD2B29A707B689B68BA69D2799A72D5
:101900007B689B683A6BD2B21A737B689B68FA6AF1
:10191000D2B25A737B689B68BA6AD2B29A737B68F8
:101920009B687A6BD2B2DA737B689B687A6A92B2F0
:101930001A827B689B68FA69D1B220229954C0460A
:10194000BD4610B080BD80B582B000AF78607B68C6
:101950005B68022018567B685B689B7919007B687E
:101960001A00FFF784FD7B685B68012018567B68CE
:101970005B685B7919007B681A00FFF778FD7B686C
:101980005B68042018567B685B681B7A19007B68CB
:101990001A00FFF76CFD7B685B68032018567B68B4
:1019A0005B68DB7919007B681A00FFF7C1FCC04651
:1019B000BD4602B080BDFFFF80B584B000AF786047
:1019C0007B689B68DB7ADBB2FB607B689B681B8A69
:1019D0009BB2BB607B6820229B5C012B0DD1FB6816
:1019E00040221343FB60BB681D4A1340BB60BB68C9
:1019F00040F200721343BB6023E07B6820229B5CB3
:101A0000022B0DD1FB6860229343FB60BB68144A34
:101A10001340BB60BB6840F600721343BB6010E02C
:101A2000FB6840229343FB60FB6820221343FB606A
:101A3000BB680B4A1340BB60BB6840F200321343E3
:101A4000BB607B689B68FA68D2B2DA727B689B687D
:101A5000BA6892B21A82C046BD4604B080BDC04684
:101A6000FFF0FFFF80B582B000AF78607B689A68B6
:101A7000137840210B431370C046BD4602B080BDB1
:101A800080B588B000AFF860B9607A603B60FB68F1
:101A9000FB61FB690BB9012316E1FB691A6845F28A
:101AA0004903C5F253239A4201D007230CE1BB68D6
:101AB0001BB97B680BB9012306E13B680BB9012315
:101AC00002E1FB695B681B691BB9FB695B685B69C9
:101AD0003BB13A680123C0F201039A4201D30123CA
:101AE000F2E0FB699B681B78DBB21A0040231340CD
:101AF0000BB10823E8E0FB69BA68DA60FB697A6831
:101B00001A61FB6900225A61FB6900229A61FB6934
:101B10003A68DA61FA6928203B1820211B7853546F
:101B2000FB695B685B69002B5FD0FB693A689A616F
:101B30003B181B785B08DAB2FB695B685B695B6822
:101B40001B68111C03220A40D2B203210A40100173
:101B5000DA7830218A43111C021C0A43DA70FB69CF
:101B60005B685B695B681B689A780C218A43111C6F
:101B700008220A439A70FB695B685B695B681B68B3
:101B80003A6892B2DA81FB695B685B695B681B68E3
:101B90007A689A607B6893B9FB695B685B695B688C
:101BA0001B689A780C218A439A70FB695B685B69B1
:101BB0005B681A6840F2F043C2F200039360FB696D
:101BC0005B685B699B685A68FB695B685B6918685E
:101BD000FB695B685B695B681B68190090470300E1
:101BE000BB61BB690BB1BB696EE0FB695B681B69DC
:101BF000002B60D0FB693A685A612823FB181B78D8
:101C00005B08DAB2FB695B681B695B681B68111CC7
:101C100003220A40D2B203210A401001DA783021AF
:101C20008A43111C021C0A43DA70FB695B681B695A
:101C30005B681B68DA780C218A43111C08220A436E
:101C4000DA70FB695B681B695B681B683A6892B273
:101C5000DA81FB695B681B695B681B68BA685A605C
:101C6000BB6893B9FB695B681B695B681B68DA78C2
:101C70000C218A43DA70FB695B681B695B681A6830
:101C800040F2F443C2F200035360FB695B681B69D6
:101C90009B685A68FB695B681B691868FB695B682D
:101CA0001B695B681B681900904703007B617B69B7
:101CB0000BB17B6908E0FB691800FFF77DFEFB694B
:101CC0001800FFF7CFFE00231800BD4608B080BD06
:101CD00080B584B000AF78607B689B69FB607B68EF
:101CE000DB69FA689A4233D07B681B691BB97B6851
:101CF0009B685B6827E07B6820229B5C012B09D1F5
:101D00007B689A687B681969FB68CB181279D2B234
:101D10001A7018E07B6820229B5C022B0AD17B683A
:101D20009A687B681969FB685B00CB18928892B24D
:101D30001A8008E07B689A687B681969FB689B00D9
:101D4000CB1852681A60FB685A1C7B689A6100E0E5
:101D5000C046BD4604B080BD80B584B000AF786099
:101D60007B685B69FB607B68DB69FA689A4232D00A
:101D70007B68DB6823B97B689B6800225A6025E09A
:101D80007B6820229B5C012B08D17B68DA68FB68AA
:101D9000D2187B689B6812781A7117E07B68202242
:101DA0009B5C022B09D17B68DA68FB685B00D21868
:101DB0007B689B6812889A8008E07B68DA68FB6819
:101DC0009B00D2187B689B6812685A60FB685A1C9B
:101DD0007B685A6100E0C046BD4604B080BD90B546
:101DE00087B000AF78600A00FB1C1A707B689B6AA2
:101DF0007B617B691BB90823FB187B6104E0082326
:101E0000FB187A6913CA13C37B685B681B781A00D6
:101E10007B691A607B69FA1C12781A717B68DA6A2E
:101E20007B699A607B685B6A7A69100098477B6877
:101E30009B6A2BB17B689B6A0822BA1813CA13C32A
:101E4000C046BD4607B090BD90B583B000AFFC1D45
:101E5000FFF703FA03002370FB1D1B785BB2180029
:101E6000FFF726FAFB1D1B785BB21800FFF71AFB81
:101E700003003B603B681800FFF72AFF3B689A6944
:101E80003B68DB699A4206D13B685B68DB785BB2F2
:101E90001800FFF791FAC046BD4603B090BDB0B53B
:101EA00084B000AF0F257C19FFF7D7F9030023702A
:101EB0007B191B785BB21800FFF7FAF97B191B78C6
:101EC0005BB21800FFF7EEFA0300BB60BB685B680B
:101ED0001B6A7B607B68EBB17B685B78012B19D157
:101EE000BB685A69BB68DB69013B9A4207D1BB6892
:101EF0005B68DB785BB21800FFF77DFA0AE0BB682D
:101F00005B681B6933B1BB685B68DB785BB2180048
:101F1000FFF752FABB681800FFF71EFFC046BD4628
:101F200004B0B0BD90B583B000AFFC1DFFF795F9CC
:101F300003002370FB1D1B785BB21800FFF7B8F994
:101F4000FB1D1B785BB21800FFF7ACFA03003B6087
:101F50003B689B68DB789B07DB0FDBB223B13B68F8
:101F60005B685B7A012B10D1FB1D1B785BB21800FC
:101F7000FFF757FA3B689A68137840218B43137038
:101F80003B6801211800FFF72AFFC046BD4603B099
:101F900090BDB0B584B000AF0F257C19FFF75DF997
:101FA000030023707B191B785BB21800FFF77AFAE5
:101FB0000300BB60BB689A68137840218B431370A1
:101FC000BB689A68FB1DD2781A70BB689B680022B8
:101FD000DA70FB1D1B7808221340DBB223B1BB680B
:101FE00005211800FFF7FBFEFB1D1B7801221340A3
:101FF000DBB223B1BB6804211800FFF7F0FEFB1D24
:102000001B7804221340DBB253B1FB1D1B78102256
:102010001340DBB223B1BB6808211800FFF7DFFED5
:102020000F23FB181B785BB21800FFF741F9C0467D
:10203000BD4604B0B0BD80B582B000AFEFF30383FE
:102040007B607B683B603B001B88DB05DB0D9BB244
:10205000DBB2103BDBB25BB21800BD4602B080BD04
:1020600080B582B000AF0200FB1D1A7046F200037B
:10207000C4F20003FA1D127852B2C0329100CA585D
:1020800003480240CA50C046BD4602B080BDC046AB
:10209000FFFFFEFF80B582B000AF0200FB1D1A708B
:1020A000FB1D00229A5640F2AC73C2F2000392006C
:1020B000D3581800BD4602B080BDFFFF80B586B082
:1020C00000AFF860B9607A60FB687B6100233B6118
:1020D0007A68B9687B69180000F050F803003B612A
:1020E0003B690BB13B6943E07B691B690BB108237A
:1020F0003EE07B691B6A9B78DAB27B691B6A7B21B5
:102100000A40D2B29A707B699B789B079B0FDBB227
:102110001A007B689A1A7B691A617B699B789B0716
:102120009B0FDBB21A00BB689A187B69DA607B6987
:102130001B6A9B78DAB27B691B6A802149420A4399
:10214000D2B29A707B699B7803221340DBB2022BD8
:1021500008D1BB681A887B691B6A07490A4392B297
:10216000DA8104E07B691B6ABA681278DA700023AE
:102170001800BD4606B080BD00FEFFFF80B584B0EC
:1021800000AFF860B9607A60FB680BB9012325E005
:10219000BB680BB9012321E07B680BB901231DE06B
:1021A000FB685A6844F65513C5F243339A4201D08E
:1021B000072313E0FB689B7803221340DBB2022B5A
:1021C0000BD1BB68012213400BB1032306E07B68EF
:1021D000012213400BB1032300E000231800BD4689
:1021E00004B080BD90B58BB000AFF860B960FB1D46
:1021F0001A70FB689B6A7B627B6A1BB91423FB180D
:102200007B6206E01423FB187A6A13CA13C31268B0
:102210001A60FB68DB691B781A007B6A1A607B6AAC
:10222000BA689A607B6AFA1D12781A71FB68DA6ADA
:102230007B6ADA60FB685B6A7A6A10009847FB6821
:102240009B6A3BB1FB689B6A1422BA1813CA13C37A
:1022500012681A60C046BD460BB090BDB0B584B0E0
:1022600000AF0F257C19FFF7E6FE030023707B19F2
:102270001B785BB21800FFF7F3FE7B191B785BB28B
:102280001800FFF707FF0300BB60BB68DB691B6931
:102290006BBBBB681B6953B3BB689B7803221340BD
:1022A000DBB2022B09D1BB68DB681A88BB681B6AEA
:1022B00022490A4392B2DA8105E0BB68DA68BB685A
:1022C0001B6A1278DA70BB681B69BA689278920749
:1022D000920FD2B29A1ABB681A61BB68DB68BA68FF
:1022E00092789207920FD2B29A18BB68DA60BB68F4
:1022F0001B69F3B9BB681A6AFB1D92781A70FB1D43
:10230000FA1D127804210A431A70FB1DFA1D127877
:102310007F210A401A70BB681B6AFA1D12789A70F6
:10232000BB680022DA60BB68802200211800FFF73A
:1023300059FFC046BD4604B0B0BDC04600FEFFFF19
:10234000B0B584B000AF0F257C19FFF774FE030011
:1023500023707B191B785BB21800FFF781FE7B1995
:102360001B785BB21800FFF795FE0300BB60BB68EB
:102370009B7803221340DBB2022B07D1BB681B6A98
:102380001B8A9BB2DB05DB0D7B6004E0BB681B6A2C
:102390005B79DBB27B60BB689B6933B97968BB68EA
:1023A00004221800FFF71EFF28E0BB685869BB68CD
:1023B0009B789B079B0FDBB21A003B1D190001F0B5
:1023C00011FABB685B69BA6892789207920FD2B231
:1023D0009A18BB685A61BB689B69BA689278920781
:1023E000920FD2B29A1ABB689A61BB689B692BB9EB
:1023F000BB68012200211800FFF7F4FEC046BD466D
:1024000004B0B0BD90B583B000AFFC1DFFF713FE64
:1024100003002370FB1D1B785BB21800FFF73AFE28
:1024200003003B603B681B6A9B78DAB23B681B6A1F
:102430007B210A40D2B29A703B6802220021180028
:10244000FFF7D0FEFB1D1B785BB21800FFF708FEFC
:10245000C046BD4603B090BDB0B584B000AF0A25FC
:102460007C19FFF7E8FD030023707B191B785BB232
:102470001800FFF70FFE03007B600023FB607B6802
:102480009B7803221340DBB2022B07D17B681B6AC7
:102490001B8A9BB2DB05DB0DFB6004E07B681B6ADB
:1024A0005B79DBB2FB607B681B6A1B79DAB20B20BD
:1024B0003B1838210A401A7001007B181B78102243
:1024C000134063B17B681B6A1B7FDB07DB0FDBB24A
:1024D0002BB97B187A18127840210A431A707B684E
:1024E0001B6A1B79DAB27B681B6A38218A43D2B235
:1024F0001A710B23FB181A78F9687B681800FFF72C
:1025000071FE0A23FB181B785BB21800FFF7A8FDC9
:10251000C046BD4604B0B0BD80B584B000AF002356
:10252000FB60EFF310837B607B68FB600123BB6083
:10253000BB6883F31088C04640F2A873C2F2000360
:102540001B685BB940F60053C4F204030022DA7042
:1025500040F60053C4F204034022DA7040F2A8733C
:10256000C2F200031B685A1C40F2A873C2F20003B7
:102570001A60FB683B603B6883F31088C046C04626
:10258000BD4604B080BD80B584B000AF0023FB60C1
:10259000EFF310837B607B68FB600123BB60BB684B
:1025A00083F31088C04640F2A873C2F200031B6890
:1025B00053B140F2A873C2F200031B685A1E40F2E6
:1025C000A873C2F200031A6040F2A873C2F20003BB
:1025D0001B685BB940F60053C4F204030022DA70B2
:1025E00040F60053C4F204038022DA70FB683B60BB
:1025F0003B6883F31088C046C046BD4604B080BD2A
:1026000080B584B000AF786039607B68FB60FB68A0
:102610000BB901231DE03B680BB9012319E03B68AE
:102620005B680BB9012314E0FB681A6845F2542378
:10263000C5F24F039A4201D10E230AE0FA6845F22F
:102640005423C5F24F0313603B68180000F070F884
:1026500000231800BD4604B080BD90B589B000AF1E
:10266000786008001100BB1C021C1A807B1C0A1C2D
:102670001A707B68BB61BB690BB9012354E0BB696D
:102680001A6845F25423C5F24F039A4201D007233A
:102690004AE07B1C1B78012B01D9032344E01E2355
:1026A000FB1800221A801C203B1800221A801623D7
:1026B000FB18BA1C1288FF218A431A8014243B1984
:1026C000BA1C1288FF210A401A803B191B8801227C
:1026D0009A4012217B181A807B1C1B7823B93B1867
:1026E0007A1812881A8005E01E23FB181222BA18E5
:1026F00012881A801623FB181B881B0A9BB21A002B
:10270000FF2313405B0140F2000CC4F2040C63444D
:10271000FB601C23FB181B881A041E23FB181B8854
:102720001A43FB689A6000231800BD4609B090BDAB
:1027300090B585B000AF78607B68BB60FFF7ECFEBA
:102740000E23FB1800221A8017E0BB685A680E217E
:102750007B181B88DB00D3189888BB685A680C006C
:102760007B181B88DB00D3181B68190000F012F8D7
:102770003B191A883B1901321A80BB681B880E224C
:10278000BA1812889A42E0D3FFF7FDFEC046BD4654
:1027900005B090BD90B583B000AF02003960BB1D9D
:1027A0001A803A6880235B0213403BB340F6000373
:1027B000C4F20403BA1D1288120A92B21000BA1DA4
:1027C0001288FF210A4001018A189100CA58164850
:1027D0000240CA5040F60003C4F20403BA1D128836
:1027E000120A92B21400BA1D1288FF210A403968F9
:1027F0000D480140200182189200D15040F600039C
:10280000C4F20403BA1D1288120A92B21000BA1D53
:102810001288FF210A4001018A1892003968D150BC
:10282000C046BD4603B090BDFFFFFEFF80B586B039
:1028300000AF786039607B687B617B690BB90123ED
:1028400052E07B691A6844F20033C4F254439A425E
:1028500001D10E2348E03B680BB9012344E03B68FB
:102860005B680BB901233FE03B681B680BB9012390
:102870003AE03B681B68180000F01AFB03003B615C
:102880003B690BB13B692FE000F060FA3B685B6885
:10289000FB600B217B18FA6812781A707B181B7882
:1028A0007F2B01D90B231FE00B23FB1800229A5624
:1028B00040F20003C2F200039200D3580BB1082388
:1028C00012E07B690B22BA1812781A713B681A68F9
:1028D0007B691100180000F08FFA7A6944F2003326
:1028E000C4F25443136000231800BD4606B080BDF7
:1028F00080B584B000AF786039607B68FB60FB68AE
:102900000BB901234EE0FB681A6844F20033C4F2AD
:1029100054439A4201D0072344E03B680BB901239A
:1029200040E03B68180000F0C3FA03000BB101233C
:1029300038E046F20003C4F20003FA68127952B29A
:10294000C0329100CA5819480240CA5046F20003EA
:10295000C4F20003FA68127952B2C0329200D3581E
:10296000DB05DB0D9BB21A0048F200031343BB608A
:10297000C04645F20043C4F20003DB899BB21A0053
:10298000BB689342F5D03A68FB681100180000F06C
:1029900033FAFB68180000F0AFF903000BB1132302
:1029A00000E000231800BD4604B080BDFFFFFFFE1D
:1029B00080B586B000AFF860B9607A601A00BB1CC1
:1029C0001A80FB687B617B690BB901239EE07B6900
:1029D0001A6844F20033C4F254439A4201D00723E8
:1029E00094E046F20003C4F200037A69127952B20D
:1029F000C0329100CA5847480240CA5046F200030C
:102A0000C4F200037A69127952B2C0329200D358EC
:102A1000DB05DB0D9BB21A0048F2000313433B6158
:102A2000C04645F20043C4F20003DB899BB21A00A2
:102A30003B699342F5D045F20043C4F200030822FB
:102A40001A70BB685BB17B691B795BB21A0040F2FC
:102A50000003C2F200039200D358BA685A607B6840
:102A60005BB17B691B795BB21A0040F20003C2F2D2
:102A700000039200D3587A689A607B691B795BB235
:102A80001A0040F20003C2F200039200D358DB7830
:102A90003F229343DBB2802B0DD17B691B795BB264
:102AA0001A0040F20003C2F200039200D358BA1C8D
:102AB00012889A811BE07B691B795BB21A0040F295
:102AC0000003C2F200039200D358DB783F22934305
:102AD000DBB263B97B691B795BB21A0040F2000379
:102AE000C2F200039200D358BA1C1288DA8145F270
:102AF0000043C4F2000318221A707B69180000F02A
:102B0000FBF803000BB1132300E000231800BD46BF
:102B100006B080BDFFFFFFFE80B582B000AF7860D9
:102B20000A00FB1C1A7006231800BD4602B080BDC7
:102B300080B582B000AF786006231800BD4602B0B1
:102B400080BD80B584B000AF78607B68FB60FB68B7
:102B50000BB901230EE0FB681A6844F20033C4F29B
:102B600054439A4201D0072304E0FB68180000F0A8
:102B7000C3F803001800BD4604B080BD80B584B022
:102B800000AF78607B68FB60FB680BB9012317E03E
:102B9000FB681A6844F20033C4F254439A4201D0ED
:102BA00007230DE046F20003C4F20003FA6812792D
:102BB00052B2C0329100CA5803480240CA500023A2
:102BC0001800BD4604B080BDFFFFFFFE80B584B095
:102BD00000AF786039607B68FB60FB680BB901234C
:102BE0004DE0FB681A6844F20033C4F254439A4241
:102BF00001D0072343E03B680BB901233FE0FB68AA
:102C00001B795BB21A0040F20003C2F2000392008B
:102C1000D358BB603B6800221A603B6800225A60B0
:102C2000BB68DB783F229343DBB2EBB13B6840F2F9
:102C300000129A60BB68DB899BB21A00FF231A401E
:102C40003B68DA60BB68DB783F229343DBB2802BC2
:102C500014D13B68802252021A60BB689B899BB2E8
:102C60001A003B685A6009E03B68802252029A6071
:102C7000BB68DB899BB21A003B68DA60002318004E
:102C8000BD4604B080BDFFFF80B584B000AF786062
:102C90007B68FB600023BB60FB680BB9012325E068
:102CA000FB681A6844F20033C4F254439A4201D0DC
:102CB00007231BE046F20003C4F20003FA6812790E
:102CC00052B2C0329100CA580A480240CA50FB684A
:102CD0001B795BB21A0040F20003C2F200039200BB
:102CE0000021D150FB6800221A60BB681800BD4665
:102CF00004B080BDFFFFFFFE80B584B000AF7860F8
:102D00007B681B795BB21A0040F20003C2F2000339
:102D10009200D358180000F00FF90300FB60FB6825
:102D20000BB1FB680EE046F20003C4F200037A68C0
:102D3000127952B2C0329100CA5880204004024336
:102D4000CA5000231800BD4604B080BD80B584B0D1
:102D500000AF40F2F843C2F200031B780122534057
:102D6000DBB2002B41D040F2F843C2F20003012253
:102D70001A700023FB60EFF310833B603B68FB603D
:102D800001237B607B6883F31088C0464EF200030A
:102D9000C4F20103DA694EF20003C4F201031549DB
:102DA0000A40DA614EF20003C4F20103DB69FB68FA
:102DB000BB60BB6883F31088C04640F20003C2F2D8
:102DC000000380220021180000F015FD45F20043A9
:102DD000C4F2000340F20002C2F200025A6045F25F
:102DE0000043C4F2000301221A73C046BD4604B07A
:102DF00080BDC046FFFFBFFF80B582B000AF7860E6
:102E000039603B68180000F01BF845F20043C4F23B
:102E1000000308221A707B681B795BB21A0040F22B
:102E20000003C2F2000392003968D15045F200431A
:102E3000C4F2000318221A70C046BD4602B080BD1D
:102E400080B584B000AF78600023FB60FB681B0195
:102E50007A68D318DB783F229343DBB2BBB1FB68BF
:102E60001B017A68D318DB899AB20B217B181A7080
:102E70007B181B781B021AB27B181B781BB21343FA
:102E800019B2FB681B017A68D3188AB2DA81FB6831
:102E90005A1CFA601B017A68D3189B783F2293432F
:102EA000DBB2002BD2D1C046C046BD4604B080BDC7
:102EB00080B584B000AF78600023FB60FB681B0125
:102EC0007A68D318DB780C221340DBB2042B01D1D3
:102ED00006232DE0FB681B017A68D3189B780C222F
:102EE0001340DBB2042B01D1062321E0FB681B0158
:102EF0007A68D318DB783F229343DBB25BB1FB687F
:102F00001B017A68D318DB899BB240F2001293420E
:102F100001D901230CE0FB685A1CFA601B017A6896
:102F2000D3189B783F229343DBB2002BC6D10023FA
:102F30001800BD4604B080BD80B584B000AF786095
:102F40000023FB60FB681B017A68D318DB780C2236
:102F50001340DBB2042B01D1062354E0FB681B01B4
:102F60007A68D3189B780C221340DBB2042B01D172
:102F7000062348E0FB681B017A68D3185B680BB92D
:102F8000012340E0FB681B017A68D3189B680BB9EA
:102F9000012338E0FB681B017A68D3189B6819008D
:102FA000FB681B017A68D318DB789B069B0FDBB2AA
:102FB0001A0001239340013B0B400BB1012322E097
:102FC000FB681B017A68D3185B681900FB681B015A
:102FD0007A68D318DB789B069B0FDBB21A000123BB
:102FE0009340013B0B400BB101230CE0FB685A1CE2
:102FF000FA601B017A68D3189B783F229343DBB2B7
:10300000002B9FD100231800BD4604B080BD80B5C1
:1030100082B000AF0200FB1D1A704EF20003C4F232
:103020000103A0229B5CDBB2FA1D12789A4234D0D5
:103030004EF20003C4F2010336229B5CDBB25BB9A3
:10304000C0464EF20003C4F201033C229B5CDB0746
:10305000DB0FDBB2012BF4D1C0464EF20003C4F209
:103060000103A0229B5CDB06DB0FDBB2002BF4D15B
:103070004EF20003C4F20103FA1DA02112785A5443
:10308000C0464EF20003C4F20103A0229B5CDB06A3
:10309000DB0FDBB2002BF4D100E0C046BD4602B02E
:1030A00080BD80B582B000AF4EF20003C4F20103D0
:1030B00026229B5CDBB27B6040F2AC03C2F20003D1
:1030C0007A689200D2584EF20003C4F201031B6AE0
:1030D0005B015B0FDBB2DA4040F24453C2F2000303
:1030E0001A60C046BD4602B080BD80B500AF4EF24A
:1030F0000003C4F201033122012199544FF6C47335
:10310000C4F27E0301221A704EF20003C4F20103DE
:103110002622002199544EF20003C4F2010340F22A
:1031200000121A62FFF7BDFFC046BD4680BD80B5E4
:1031300000AF40F2AC03C2F2000346F60042C0F218
:10314000DC221A6040F2AC03C2F2000341F200221A
:10315000C0F27A025A6040F2AC03C2F2000348F2B5
:1031600000029A6040F2AC03C2F200030022DA606F
:1031700040F2AC03C2F2000300221A61FFF791FF94
:10318000C046BD4680BDFFFF80B500AF4EF20003D4
:10319000C4F2010340F2FE321F4999524CF200037F
:1031A000C4F27E0343F6C87200219954FFF7BFFFB3
:1031B0004EF20003C4F2010340F28042012199540F
:1031C0000020FFF724FF4EF20003C4F20103362271
:1031D00000219954C0464EF20003C4F201033C2280
:1031E0009B5CDB07DB0FDBB2012BF4D1FFF77DFF2C
:1031F0004EF20003C4F2010340F2FE320749995235
:103200004CF20003C4F27E0343F6C87201219954C4
:10321000C046BD4680BDC04603A5FFFF00A5FFFF19
:1032200080B582B000AF7860C046BD4602B080BDB8
:10323000B0B58CB000AFF860B9600023FB62FB68EA
:10324000BA685343BB6240F24453C2F200031B68A6
:103250007B624CF60023C3F69A337A6AB3FBF2F32F
:103260003B62BB6A3B6000237B6040F2E832002394
:103270003868796800F088FA02000B00BA61FB61D7
:10328000FB6943B9BA693B6AB2FBF3F37B617B69C3
:103290009B08FB621BE03B6A9B00BA6AB2FBF3F33C
:1032A000BB62BB6A1C00002540F2E832002320000C
:1032B000290000F069FA02000B00BA61FB61FB69AA
:1032C00013B9BB69FB6202E001235B42FB62FB6A4C
:1032D0001BB1FB6A180000F004F8C046BD460CB0F4
:1032E000B0BD01380028FCD17047C04680B582B01F
:1032F00000AF0200FB1D1A70FB1D1A7840F2FC4360
:10330000C2F200039200D3585BB1FB1D1A7840F261
:10331000FC43C2F200039200D358FA1D1278100049
:103320009847C046BD4602B080BD80B582B000AFB0
:1033300046F20003C4F200033A1D40F240115B5A0A
:103340001380FB1D00221A7012E03B1D1A88FB1D22
:103350001B78DA4013000122134023B1FB1D1B78B8
:103360001800FFF7C3FFFB1D1A78FB1D01321A700E
:10337000FB1D1B780F2BE8D946F20003C4F20003B3
:103380003A1D40F2301112885A52C046BD4602B072
:1033900080BD80B582B000AF00237B6012E043F6B1
:1033A0003053C0F200037A689B181A7846F2000383
:1033B000C4F2000311007A68C0329200D1507B68D9
:1033C00001337B607B681F2BE9D9C046C046BD46F0
:1033D00002B080BD80B586B000AF0200FB1D1A7040
:1033E00000237B61EFF31083FB60FB687B610123AB
:1033F0003B613B6983F31088C046FB1D1A7840F29D
:103400003C53C2F200035200D35A9BB283B1FB1D5E
:103410001A7840F23C53C2F200035100CB5A9BB2DF
:10342000013B99B240F23C53C2F200035200D15228
:10343000FB1D1A7840F23C53C2F200035200D35AEB
:103440009BB2EBB94EF20003C4F2010340F2FE322C
:103450009B5A9BB20F4A13439AB2FB1D197843F64D
:103460007453C0F200034900CB5ADB4399B24EF2C9
:103470000003C4F201030A4091B240F2FE329952B5
:103480007B69BB60BB6883F31088C046C046BD46FD
:1034900006B080BD00A5FFFF80B586B000AF02007A
:1034A000FB1D1A7000237B61EFF31083FB60FB6848
:1034B0007B6101233B613B6983F31088C046FB1DA0
:1034C0001A7840F23C53C2F200035200D35A9BB226
:1034D000DBB94EF20003C4F2010340F2FE329B5A04
:1034E0009AB2FB1D197843F67453C0F200034900E9
:1034F000CB5A13439AB24EF20003C4F201031049AF
:103500000A4391B240F2FE329952FB1D1A7840F202
:103510003C53C2F200035100CB5A9BB2013399B223
:1035200040F23C53C2F200035200D1527B69BB60AF
:10353000BB6883F31088C046C046BD4606B080BD58
:1035400000A5FFFF80B500AF00F00AF8FDF77DFE93
:10355000FEE780B500AF00BEC046BD4680BDFFFFA0
:1035600080B582B000AF4EF60053CEF2000340F2B9
:103570000002C0F200029A600020FDF779FDFFF71B
:1035800003FE00F083F80120FDF772FD40F60053C2
:10359000C4F2000300229A8040F60053C4F20003F4
:1035A000394A1A8040F60053C4F2000340F6300254
:1035B000C2F200029A6040F60053C4F2000340F6E3
:1035C0003042C2F20002DA6046F20003C4F20003A5
:1035D00040F2201241F20001995240F60053C4F229
:1035E000000301229A8040F62C02C2F2000240F24F
:1035F000C003C2F20003D21A40F2C003C2F20003B9
:103600000021180000F0F7F840F2AC02C2F200020C
:1036100040F28003C2F20003D21A43F68051C0F296
:10362000000140F28003C2F20003180000F0DAF853
:1036300040F2A802C2F2000240F2A403C2F2000368
:10364000D31A9B103B6000237B600AE040F2A40386
:10365000C2F200037A689200D35898477B6801331E
:103660007B607A683B689A42F0DBFFF71AFD022024
:10367000FDF7FEFCFFF78DFE0020FFF7D1FDC046F1
:10368000BD4602B080BDC04600A5FFFF80B58AB030
:1036900000AFFB1D00221A70FB1D1B780120FFF7F5
:1036A000FBFE00237B62EFF31083BB60BB687B6291
:1036B0000123FB60FB6883F31088C04647F20003D8
:1036C000C4F204035A6847F20003C4F204032D490C
:1036D0000A405A6047F20003C4F204035B687B6A45
:1036E0003B613B6983F31088C04640F60003C4F297
:1036F00004031B68DB07DB0FDBB21A00FB1D1A702B
:1037000040F60003C4F204031B68DB07DB0FDBB2E7
:103710001A00FB1D1A7040F60003C4F204031B6874
:10372000DB07DB0FDBB21A00FB1D1A7000233B62C4
:10373000EFF310837B617B693B620123BB61BB6953
:1037400083F31088C04647F20003C4F204035A68AA
:1037500047F20003C4F20403802149050A435A607A
:1037600047F20003C4F204035B683B6AFB61FB6938
:1037700083F31088C0460120FFF72CFEC046BD46EB
:103780000AB080BDFFFFFFEFF0B5CE4647464FF6CB
:10379000FF7580B50700280015400E002900140CA5
:1037A000384099463B0C41435D43604363434019B5
:1037B0000C0C24189C46A54203D980235B02984632
:1037C000C4444B464FF6FF707B437243250C65445F
:1037D00024040840591920188918C0BCB946B046BD
:1037E000F0BDC046002310B59A4200D110BDCC5C9C
:1037F000C4540133F8E703008218934200D17047A4
:1038000019700133F9E70023C25C0133002AFBD1B0
:10381000581E704700000103332E312E3000000087
:103820004275696C7420776974682052656E65739F
:10383000617320416476616E63656420466C6578CF
:1038400069626C6520536F667477617265205061A0
:10385000636B6167652076657273696F6E20332EC6
:10386000312E3000F8B5C046F8BC08BC9E46704703
:10387000F8B5C046F8BC08BC9E4670475465726DEA
:10388000696E616C00000000525454005345474774
:10389000455200FF060E0000A80E0000A80E000012
:1038A000A80E0000A80E0000A80E0000A80E000040
:1038B000A80E0000A80E0000A80E0000A80E000030
:1038C0008C0D0000B60D0000A80E0000A80E000030
:1038D000A80E0000A80E0000A80E0000A80E000010
:1038E000A80E0000A80E0000A80E0000A80E000000
:1038F000A80E0000740E0000A80E0000A80E000024
:103900002E0E0000A80E0000DE0D0000A80E000024
:10391000A80E0000060E0000303132333435363741
:1039200038394142434445460D0A205343495F53C9
:103930005049206F70656E206661696C6564000097
:103940005B4552525D20496E2046756E6374696F07
:103950006E3A20257328292C202573000D0A526504
:103960007475726E6564204572726F7220436F6465
:10397000653A203078257820200D0A000D0A205362
:1039800043495F53504920636C6F736520666169DA
:103990006C6564004154490D0000000042616261A1
:1039A0006E617A61720A00004D49524F4F0A00FF62
:1039B000696E69745F454550524F4D000D0A2053A2
:1039C00043495F535049206F70656E206661696C92
:1039D000656400005B4552525D20496E2046756E5D
:1039E0006374696F6E3A20257328292C2025730093
:1039F0000D0A52657475726E6564204572726F723D
:103A000020436F64653A203078257820200D0A0025
:103A10000D0A536C61766520525F5350495F5265C1
:103A200061642829206661696C6564000D0A4D6136
:103A30007374657220525F5350495F5772697465A1
:103A40002829206661696C656400FFFF77726974DC
:103A5000655F746F5F454550524F4D000D0A2A2A2D
:103A600020525F5343495F554152545F4F70656E1A
:103A700020415049206661696C656420202A2A0D26
:103A80000A0000005B4552525D20496E2046756E6B
:103A90006374696F6E3A20257328292C20257300E2
:103AA0000D0A2A2A2020525F5343495F5541525440
:103AB0005F577269746520415049204661696C65A1
:103AC0006420202A2A0D0A000D0A2A2A20205541A6
:103AD0005254204572726F72204576656E74205282
:103AE0006563656976656420202A2A0D0A00000056
:103AF0000D0A2A2A2020525F5343495F55415254F0
:103B00005F436C6F736520415049206661696C6545
:103B10006420202A2A200D0A000000004653505F2E
:103B200053554343455353203D3D20657272000079
:103B30002E2E2F7372632F756172742E6300FFFF38
:103B400073656E645F746F5F73696D636F6D00FFA3
:103B500014FFFFFF84000020503B0000800600207F
:103B6000543B0000503D000015FFFFFF9400002073
:103B7000683B0000480600206C3B0000503D000000
:103B8000010000000000000B0000000000141516EA
:103B9000170202020200000001000000743B000056
:103BA0005C3B00003D11000000000000803B000075
:103BB0000080000000000000008000000100000004
:103BC00000800000020000000080000003000000F0
:103BD0000080000004000000008000000C000000D5
:103BE000040000000D000000040000000E000000B2
:103BF000040000000F0000000000000000010000B1
:103C000004000000010100000400000002010000A7
:103C10000000000003010000000001030401000097
:103C2000040000000501000004000000060100007F
:103C3000040000000701000000000100080100006E
:103C40000000010509010000000001050A01000053
:103C5000040000000B010000000000000C01000047
:103C6000050000000D0100000040000000020000FF
:103C7000040000000402000000000104050200002E
:103C80000000010406020000050000000702000019
:103C90000400000008020000000000000D02000007
:103CA0000000010000030000000001040103000007
:103CB00000000104020300000500000003030000EF
:103CC00000000000040300000400000000040000E5
:103CD00000000105010400000000010502040000CD
:103CE00004000000030400000400000007040000BA
:103CF000000001050804000000000105090400009F
:103D0000000000000A040000000000000B04000096
:103D10000400000000050000000001030105000090
:103D200000000103020500002F000000B03B00006E
:103D300012100F0F1D1B1C191E1B1B191E1C1E1AF7
:103D40001F1D1C1A141111100000000000000000BB
:103D50002D280000F1280000B1290000432B0000AD
:103D60007D2B0000192B0000312B0000CD2B000013
:103D7000892C000001000200080010000000000073
:103D80000A00000000000800000000000000000021
:103D9000000000000000100800000000000000000B
:0C3DA000000000002D05000001050000DF
:020000040101F8
:10001800FFFFFFFFFFFFFFFFFFFFFFFFFFFFFFFFE8
:0C002800FFFFFFFFFFFFFFFFFFFFFFFFD8
:04000003000035457F
:00000001FF
